{"abi":[{"type":"constructor","inputs":[{"name":"_usdc","type":"address","internalType":"address"},{"name":"_oracle","type":"address","internalType":"address"},{"name":"_safePool","type":"address","internalType":"address"},{"name":"_yieldPool","type":"address","internalType":"address"}],"stateMutability":"nonpayable"},{"type":"function","name":"MODE_DEFENSIVE","inputs":[],"outputs":[{"name":"","type":"uint256","internalType":"uint256"}],"stateMutability":"view"},{"type":"function","name":"MODE_EMERGENCY","inputs":[],"outputs":[{"name":"","type":"uint256","internalType":"uint256"}],"stateMutability":"view"},{"type":"function","name":"MODE_FARMING","inputs":[],"outputs":[{"name":"","type":"uint256","internalType":"uint256"}],"stateMutability":"view"},{"type":"function","name":"PRICE_THRESHOLD","inputs":[],"outputs":[{"name":"","type":"uint256","internalType":"uint256"}],"stateMutability":"view"},{"type":"function","name":"arb","inputs":[],"outputs":[{"name":"","type":"address","internalType":"contract CrossChainArbitrage"}],"stateMutability":"view"},{"type":"function","name":"checkForCrossChainOpportunities","inputs":[],"outputs":[],"stateMutability":"nonpayable"},{"type":"function","name":"currentMode","inputs":[],"outputs":[{"name":"","type":"uint256","internalType":"uint256"}],"stateMutability":"view"},{"type":"function","name":"deposit","inputs":[{"name":"amount","type":"uint256","internalType":"uint256"}],"outputs":[],"stateMutability":"nonpayable"},{"type":"function","name":"getBalance","inputs":[{"name":"user","type":"address","internalType":"address"}],"outputs":[{"name":"","type":"uint256","internalType":"uint256"}],"stateMutability":"view"},{"type":"function","name":"getMode","inputs":[],"outputs":[{"name":"","type":"uint256","internalType":"uint256"}],"stateMutability":"view"},{"type":"function","name":"oracle","inputs":[],"outputs":[{"name":"","type":"address","internalType":"contract OracleFeed"}],"stateMutability":"view"},{"type":"function","name":"owner","inputs":[],"outputs":[{"name":"","type":"address","internalType":"address"}],"stateMutability":"view"},{"type":"function","name":"rebalance","inputs":[],"outputs":[],"stateMutability":"nonpayable"},{"type":"function","name":"safePool","inputs":[],"outputs":[{"name":"","type":"address","internalType":"contract SafePool"}],"stateMutability":"view"},{"type":"function","name":"setArbitrageModule","inputs":[{"name":"arbAddress","type":"address","internalType":"address"}],"outputs":[],"stateMutability":"nonpayable"},{"type":"function","name":"setRiskProfile","inputs":[{"name":"profile","type":"uint8","internalType":"enum SentinelVault.RiskProfile"}],"outputs":[],"stateMutability":"nonpayable"},{"type":"function","name":"simulateRisk","inputs":[{"name":"newPrice","type":"uint256","internalType":"uint256"}],"outputs":[{"name":"","type":"bool","internalType":"bool"}],"stateMutability":"view"},{"type":"function","name":"totalDeposits","inputs":[],"outputs":[{"name":"","type":"uint256","internalType":"uint256"}],"stateMutability":"view"},{"type":"function","name":"usdc","inputs":[],"outputs":[{"name":"","type":"address","internalType":"contract IERC20"}],"stateMutability":"view"},{"type":"function","name":"userDeposits","inputs":[{"name":"","type":"address","internalType":"address"}],"outputs":[{"name":"","type":"uint256","internalType":"uint256"}],"stateMutability":"view"},{"type":"function","name":"userRiskProfile","inputs":[{"name":"","type":"address","internalType":"address"}],"outputs":[{"name":"","type":"uint8","internalType":"enum SentinelVault.RiskProfile"}],"stateMutability":"view"},{"type":"function","name":"withdraw","inputs":[{"name":"amount","type":"uint256","internalType":"uint256"}],"outputs":[],"stateMutability":"nonpayable"},{"type":"function","name":"yieldPool","inputs":[],"outputs":[{"name":"","type":"address","internalType":"contract YieldPool"}],"stateMutability":"view"},{"type":"event","name":"CrossChainDecision","inputs":[{"name":"selectedChain","type":"string","indexed":false,"internalType":"string"},{"name":"price","type":"uint256","indexed":false,"internalType":"uint256"},{"name":"timestamp","type":"uint256","indexed":false,"internalType":"uint256"},{"name":"reason","type":"string","indexed":false,"internalType":"string"}],"anonymous":false},{"type":"event","name":"Deposited","inputs":[{"name":"user","type":"address","indexed":true,"internalType":"address"},{"name":"amount","type":"uint256","indexed":false,"internalType":"uint256"}],"anonymous":false},{"type":"event","name":"ModeChanged","inputs":[{"name":"newMode","type":"uint256","indexed":false,"internalType":"uint256"},{"name":"price","type":"uint256","indexed":false,"internalType":"uint256"},{"name":"timestamp","type":"uint256","indexed":false,"internalType":"uint256"},{"name":"reason","type":"string","indexed":false,"internalType":"string"}],"anonymous":false},{"type":"event","name":"Rebalanced","inputs":[{"name":"mode","type":"uint256","indexed":false,"internalType":"uint256"},{"name":"amount","type":"uint256","indexed":false,"internalType":"uint256"}],"anonymous":false},{"type":"event","name":"Withdrawn","inputs":[{"name":"user","type":"address","indexed":true,"internalType":"address"},{"name":"amount","type":"uint256","indexed":false,"internalType":"uint256"}],"anonymous":false}],"bytecode":{"object":"0x610100604052348015610010575f5ffd5b5060405161271138038061271183398101604081905261002f9161031d565b6001600160a01b0384166100965760405162461bcd60e51b815260206004820152602360248201527f53656e74696e656c5661756c743a20496e76616c69642055534443206164647260448201526265737360e81b60648201526084015b60405180910390fd5b6001600160a01b0383166100fa5760405162461bcd60e51b815260206004820152602560248201527f53656e74696e656c5661756c743a20496e76616c6964204f7261636c65206164604482015264647265737360d81b606482015260840161008d565b6001600160a01b0382166101605760405162461bcd60e51b815260206004820152602760248201527f53656e74696e656c5661756c743a20496e76616c69642053616665506f6f6c206044820152666164647265737360c81b606482015260840161008d565b6001600160a01b0381166101c75760405162461bcd60e51b815260206004820152602860248201527f53656e74696e656c5661756c743a20496e76616c6964205969656c64506f6f6c604482015267206164647265737360c01b606482015260840161008d565b6001600160a01b0380851660805283811660a081905283821660c05290821660e052600180546001600160a01b0319163317905560408051634c6afee560e11b815290515f92916398d5fdca9160048083019260209291908290030181865afa158015610236573d5f5f3e3d5ffd5b505050506040513d601f19601f8201168201806040525081019061025a919061036e565b90506102a25f826040518060400160405280601b81526020017f4641524d494e473a20696e697469616c206465706c6f796d656e7400000000008152506102ac60201b60201c565b50505050506103cf565b60025483036102ba57505050565b60028390556040517f7ece719a480bd2bf712a3af1683c7148a9f3b6da26cc8d399ac7f0c11fa9f244906102f5908590859042908690610385565b60405180910390a1505050565b80516001600160a01b0381168114610318575f5ffd5b919050565b5f5f5f5f60808587031215610330575f5ffd5b61033985610302565b935061034760208601610302565b925061035560408601610302565b915061036360608601610302565b905092959194509250565b5f6020828403121561037e575f5ffd5b5051919050565b848152836020820152826040820152608060608201525f8251806080840152806020850160a085015e5f60a0828501015260a0601f19601f83011684010191505095945050505050565b60805160a05160c05160e0516122216104f05f395f81816102be0152818161044e015281816105500152818161058b01528181610baa01528181610fba015281816111b60152818161157e015281816115b9015281816116fe015281816117390152818161198501526119c001525f8181610284015281816106aa015281816107ab015281816107e601528181610c3b0152818161108d015281816112420152818161127d015281816113be015281816113f9015281816114f201528181611a330152611a6e01525f81816102410152610e9501525f818161019f01528181610609015281816108340152818161092101528181610b2d0152818161134001528181611680015281816118b001528181611c1e0152611caf01526122215ff3fe608060405234801561000f575f5ffd5b5060043610610148575f3560e01c80637dc0d1d0116100bf57806398d20c111161007957806398d20c11146102e05780639f94c67a146102e8578063acb5fedf14610317578063b6b55f2514610329578063bdab16011461033c578063f8b2cb4f1461034f575f5ffd5b80637dc0d1d01461023c5780638125092f146102635780638356e0351461026c57806384db6d291461027f5780638da5cb5b146102a65780638f188dd4146102b9575f5ffd5b80634b4fd03b116101105780634b4fd03b146101e1578063513b55f8146101e95780635c6cff88146102145780635ed4c4dd1461021c5780637d7c2a1c1461022b5780637d88209714610233575f5ffd5b80630ba36dcd1461014c578063252191371461017e5780632e1a7d4d146101855780633e413bee1461019a5780633f55d696146101d9575b5f5ffd5b61016b61015a366004611dbf565b60036020525f908152604090205481565b6040519081526020015b60405180910390f35b61016b5f81565b610198610193366004611dec565b610377565b005b6101c17f000000000000000000000000000000000000000000000000000000000000000081565b6040516001600160a01b039091168152602001610175565b6101986109e8565b60025461016b565b6102046101f7366004611dec565b670ddd2935029d80001190565b6040519015158152602001610175565b61016b600281565b61016b670ddd2935029d800081565b610198610e92565b61016b60055481565b6101c17f000000000000000000000000000000000000000000000000000000000000000081565b61016b60025481565b61019861027a366004611e03565b611834565b6101c17f000000000000000000000000000000000000000000000000000000000000000081565b6001546101c1906001600160a01b031681565b6101c17f000000000000000000000000000000000000000000000000000000000000000081565b61016b600181565b61030a6102f6366004611dbf565b60046020525f908152604090205460ff1681565b6040516101759190611e35565b5f546101c1906001600160a01b031681565b610198610337366004611dec565b61186f565b61019861034a366004611dbf565b611b00565b61016b61035d366004611dbf565b6001600160a01b03165f9081526003602052604090205490565b5f811161039f5760405162461bcd60e51b815260040161039690611e5b565b60405180910390fd5b335f908152600360205260409020548111156104095760405162461bcd60e51b815260206004820152602360248201527f53656e74696e656c5661756c743a20496e73756666696369656e742062616c616044820152626e636560e81b6064820152608401610396565b335f9081526003602052604081208054839290610427908490611ebb565b925050819055508060055f82825461043f9190611ebb565b909155505060025461069d575f7f00000000000000000000000000000000000000000000000000000000000000006001600160a01b031663853828b66040518163ffffffff1660e01b81526004016020604051808303815f875af11580156104a9573d5f5f3e3d5ffd5b505050506040513d601f19601f820116820180604052508101906104cd9190611ed4565b9050818110156105365760405162461bcd60e51b815260206004820152602e60248201527f53656e74696e656c5661756c743a20496e73756666696369656e742066756e6460448201526d1cc81a5b88165a595b19141bdbdb60921b6064820152608401610396565b818111156105ed575f6105498383611ebb565b90506105757f000000000000000000000000000000000000000000000000000000000000000082611bf9565b60405163b6b55f2560e01b8152600481018290527f00000000000000000000000000000000000000000000000000000000000000006001600160a01b03169063b6b55f25906024015b5f604051808303815f87803b1580156105d5575f5ffd5b505af11580156105e7573d5f5f3e3d5ffd5b50505050505b60405163a9059cbb60e01b8152336004820152602481018390527f00000000000000000000000000000000000000000000000000000000000000006001600160a01b03169063a9059cbb906044016020604051808303815f875af1158015610657573d5f5f3e3d5ffd5b505050506040513d601f19601f8201168201806040525081019061067b9190611eeb565b6106975760405162461bcd60e51b815260040161039690611f0a565b506109af565b60016002540361081d575f7f00000000000000000000000000000000000000000000000000000000000000006001600160a01b031663853828b66040518163ffffffff1660e01b81526004016020604051808303815f875af1158015610705573d5f5f3e3d5ffd5b505050506040513d601f19601f820116820180604052508101906107299190611ed4565b9050818110156107915760405162461bcd60e51b815260206004820152602d60248201527f53656e74696e656c5661756c743a20496e73756666696369656e742066756e6460448201526c1cc81a5b8814d85999541bdbdb609a1b6064820152608401610396565b818111156105ed575f6107a48383611ebb565b90506107d07f000000000000000000000000000000000000000000000000000000000000000082611bf9565b60405163b6b55f2560e01b8152600481018290527f00000000000000000000000000000000000000000000000000000000000000006001600160a01b03169063b6b55f25906024016105be565b6040516370a0823160e01b815230600482015281907f00000000000000000000000000000000000000000000000000000000000000006001600160a01b0316906370a0823190602401602060405180830381865afa158015610881573d5f5f3e3d5ffd5b505050506040513d601f19601f820116820180604052508101906108a59190611ed4565b10156109055760405162461bcd60e51b815260206004820152602960248201527f53656e74696e656c5661756c743a20496e73756666696369656e74207661756c604482015268742062616c616e636560b81b6064820152608401610396565b60405163a9059cbb60e01b8152336004820152602481018290527f00000000000000000000000000000000000000000000000000000000000000006001600160a01b03169063a9059cbb906044016020604051808303815f875af115801561096f573d5f5f3e3d5ffd5b505050506040513d601f19601f820116820180604052508101906109939190611eeb565b6109af5760405162461bcd60e51b815260040161039690611f0a565b60405181815233907f7084f5476618d8e60b11ef0d7d3f06914655adb8793e28ff7f018d4c76d505d5906020015b60405180910390a250565b5f546001600160a01b0316610a4f5760405162461bcd60e51b815260206004820152602760248201527f53656e74696e656c5661756c743a20417262697472616765206d6f64756c65206044820152661b9bdd081cd95d60ca1b6064820152608401610396565b5f5f5f9054906101000a90046001600160a01b03166001600160a01b0316638b35237b6040518163ffffffff1660e01b81526004015f60405180830381865afa158015610a9e573d5f5f3e3d5ffd5b505050506040513d5f823e601f3d908101601f19168201604052610ac59190810190611f55565b60408051808201909152600381526241726360e81b6020808301919091528251908301209192509082907f4285c87b43c5b190dc6dfaf14facb7e652219e94fdff847501c640d0481ed4e41480610de2576040516370a0823160e01b81523060048201525f907f00000000000000000000000000000000000000000000000000000000000000006001600160a01b0316906370a0823190602401602060405180830381865afa158015610b7a573d5f5f3e3d5ffd5b505050506040513d601f19601f82011682018060405250810190610b9e9190611ed4565b600254909150610c2f577f00000000000000000000000000000000000000000000000000000000000000006001600160a01b03166312b583496040518163ffffffff1660e01b8152600401602060405180830381865afa158015610c04573d5f5f3e3d5ffd5b505050506040513d601f19601f82011682018060405250810190610c289190611ed4565b9050610cbc565b600160025403610cbc577f00000000000000000000000000000000000000000000000000000000000000006001600160a01b03166312b583496040518163ffffffff1660e01b8152600401602060405180830381865afa158015610c95573d5f5f3e3d5ffd5b505050506040513d601f19601f82011682018060405250810190610cb99190611ed4565b90505b5f805460405163510dded360e11b81526001600160a01b039091169063a21bbda690610cec908990600401612036565b602060405180830381865afa158015610d07573d5f5f3e3d5ffd5b505050506040513d601f19601f82011682018060405250810190610d2b9190611ed4565b90508115610ddb575f610d3f600484612048565b5f5460405163326647cb60e01b81529192506001600160a01b03169063326647cb90610d71908a908590600401612067565b5f604051808303815f87803b158015610d88575f5ffd5b505af1158015610d9a573d5f5f3e3d5ffd5b505050507f15b8d05cfbee760aad87fafa0b746b308c07a79f8712d5a331f0a101758d3c08878342604051610dd193929190612088565b60405180910390a1505b5050610e8c565b5f805460405163510dded360e11b81526001600160a01b039091169063a21bbda690610e10906004016120fa565b602060405180830381865afa158015610e2b573d5f5f3e3d5ffd5b505050506040513d601f19601f82011682018060405250810190610e4f9190611ed4565b90507f15b8d05cfbee760aad87fafa0b746b308c07a79f8712d5a331f0a101758d3c088142604051610e8292919061211c565b60405180910390a1505b50505050565b5f7f00000000000000000000000000000000000000000000000000000000000000006001600160a01b03166398d5fdca6040518163ffffffff1660e01b8152600401602060405180830381865afa158015610eef573d5f5f3e3d5ffd5b505050506040513d601f19601f82011682018060405250810190610f139190611ed4565b335f9081526004602052604081205491925060ff909116908080836002811115610f3f57610f3f611e21565b03610f5e5750670ddddf1b239200009050670dd280b9144a0000610fa7565b6001836002811115610f7257610f72611e21565b03610f915750670ddd2935029d80009050670dcef33a6f838000610fa7565b50670ddb6275b03a40009050670dcb65bbcabd00005b5f80828610156111a557600254611081577f00000000000000000000000000000000000000000000000000000000000000006001600160a01b031663853828b66040518163ffffffff1660e01b81526004016020604051808303815f875af1158015611015573d5f5f3e3d5ffd5b505050506040513d601f19601f820116820180604052508101906110399190611ed4565b9050611078600287604051806040016040528060198152602001781153515491d15390d64e8819195c1959c819195d1958dd1959603a1b815250611d69565b60019150611150565b600160025403611150577f00000000000000000000000000000000000000000000000000000000000000006001600160a01b031663853828b66040518163ffffffff1660e01b81526004016020604051808303815f875af11580156110e8573d5f5f3e3d5ffd5b505050506040513d601f19601f8201168201806040525081019061110c9190611ed4565b905061114b600287604051806040016040528060198152602001781153515491d15390d64e8819195c1959c819195d1958dd1959603a1b815250611d69565b600191505b816111815760408051600281525f60208201525f5160206121cc5f395f51905f5291015b60405180910390a161182c565b6040805160028152602081018390525f5160206121cc5f395f51905f529101611174565b838610156114e657600254611322577f00000000000000000000000000000000000000000000000000000000000000006001600160a01b031663853828b66040518163ffffffff1660e01b81526004016020604051808303815f875af1158015611211573d5f5f3e3d5ffd5b505050506040513d601f19601f820116820180604052508101906112359190611ed4565b905080156112dd576112677f000000000000000000000000000000000000000000000000000000000000000082611bf9565b60405163b6b55f2560e01b8152600481018290527f00000000000000000000000000000000000000000000000000000000000000006001600160a01b03169063b6b55f25906024015f604051808303815f87803b1580156112c6575f5ffd5b505af11580156112d8573d5f5f3e3d5ffd5b505050505b61131960018760405180604001604052806018815260200177111151915394d255914e881c9a5cdac819195d1958dd195960421b815250611d69565b6001915061149a565b600280540361149a576040516370a0823160e01b81523060048201527f00000000000000000000000000000000000000000000000000000000000000006001600160a01b0316906370a0823190602401602060405180830381865afa15801561138d573d5f5f3e3d5ffd5b505050506040513d601f19601f820116820180604052508101906113b19190611ed4565b90508015611459576113e37f000000000000000000000000000000000000000000000000000000000000000082611bf9565b60405163b6b55f2560e01b8152600481018290527f00000000000000000000000000000000000000000000000000000000000000006001600160a01b03169063b6b55f25906024015f604051808303815f87803b158015611442575f5ffd5b505af1158015611454573d5f5f3e3d5ffd5b505050505b61149560018760405180604001604052806018815260200177111151915394d255914e881c9a5cdac819195d1958dd195960421b815250611d69565b600191505b816114c25760408051600181525f60208201525f5160206121cc5f395f51905f529101611174565b6040805160018152602081018390525f5160206121cc5f395f51905f529101611174565b600160025403611662577f00000000000000000000000000000000000000000000000000000000000000006001600160a01b031663853828b66040518163ffffffff1660e01b81526004016020604051808303815f875af115801561154d573d5f5f3e3d5ffd5b505050506040513d601f19601f820116820180604052508101906115719190611ed4565b90508015611619576115a37f000000000000000000000000000000000000000000000000000000000000000082611bf9565b60405163b6b55f2560e01b8152600481018290527f00000000000000000000000000000000000000000000000000000000000000006001600160a01b03169063b6b55f25906024015f604051808303815f87803b158015611602575f5ffd5b505af1158015611614573d5f5f3e3d5ffd5b505050505b6116595f876040518060400160405280601a81526020017f4641524d494e473a206e6f726d616c20636f6e646974696f6e73000000000000815250611d69565b600191506117de565b60028054036117de576040516370a0823160e01b81523060048201527f00000000000000000000000000000000000000000000000000000000000000006001600160a01b0316906370a0823190602401602060405180830381865afa1580156116cd573d5f5f3e3d5ffd5b505050506040513d601f19601f820116820180604052508101906116f19190611ed4565b90508015611799576117237f000000000000000000000000000000000000000000000000000000000000000082611bf9565b60405163b6b55f2560e01b8152600481018290527f00000000000000000000000000000000000000000000000000000000000000006001600160a01b03169063b6b55f25906024015f604051808303815f87803b158015611782575f5ffd5b505af1158015611794573d5f5f3e3d5ffd5b505050505b6117d95f876040518060400160405280601a81526020017f4641524d494e473a206e6f726d616c20636f6e646974696f6e73000000000000815250611d69565b600191505b8161180557604080515f80825260208201525f5160206121cc5f395f51905f529101611174565b604080515f8152602081018390525f5160206121cc5f395f51905f52910160405180910390a15b505050505050565b335f908152600460205260409020805482919060ff1916600183600281111561185f5761185f611e21565b021790555061186c610e92565b50565b5f811161188e5760405162461bcd60e51b815260040161039690611e5b565b6040516323b872dd60e01b8152336004820152306024820152604481018290527f00000000000000000000000000000000000000000000000000000000000000006001600160a01b0316906323b872dd906064016020604051808303815f875af11580156118fe573d5f5f3e3d5ffd5b505050506040513d601f19601f820116820180604052508101906119229190611eeb565b61193e5760405162461bcd60e51b815260040161039690611f0a565b335f908152600360205260408120805483929061195c90849061218a565b925050819055508060055f828254611974919061218a565b9091555050600254611a24576119aa7f000000000000000000000000000000000000000000000000000000000000000082611bf9565b60405163b6b55f2560e01b8152600481018290527f00000000000000000000000000000000000000000000000000000000000000006001600160a01b03169063b6b55f25906024015f604051808303815f87803b158015611a09575f5ffd5b505af1158015611a1b573d5f5f3e3d5ffd5b50505050611ace565b600160025403611ace57611a587f000000000000000000000000000000000000000000000000000000000000000082611bf9565b60405163b6b55f2560e01b8152600481018290527f00000000000000000000000000000000000000000000000000000000000000006001600160a01b03169063b6b55f25906024015f604051808303815f87803b158015611ab7575f5ffd5b505af1158015611ac9573d5f5f3e3d5ffd5b505050505b60405181815233907f2da466a7b24304f47e87fa2e1e5a81b9831ce54fec19055ce277ca2f39ba42c4906020016109dd565b6001546001600160a01b03163314611b6a5760405162461bcd60e51b815260206004820152602760248201527f53656e74696e656c5661756c743a204f6e6c79206f776e65722063616e2063616044820152666c6c207468697360c81b6064820152608401610396565b6001600160a01b038116611bd85760405162461bcd60e51b815260206004820152602f60248201527f53656e74696e656c5661756c743a20496e76616c69642061726269747261676560448201526e206d6f64756c65206164647265737360881b6064820152608401610396565b5f80546001600160a01b0319166001600160a01b0392909216919091179055565b60405163095ea7b360e01b81526001600160a01b0383811660048301525f60248301527f0000000000000000000000000000000000000000000000000000000000000000169063095ea7b3906044016020604051808303815f875af1158015611c64573d5f5f3e3d5ffd5b505050506040513d601f19601f82011682018060405250810190611c889190611eeb565b5060405163095ea7b360e01b81526001600160a01b038381166004830152602482018390527f0000000000000000000000000000000000000000000000000000000000000000169063095ea7b3906044016020604051808303815f875af1158015611cf5573d5f5f3e3d5ffd5b505050506040513d601f19601f82011682018060405250810190611d199190611eeb565b611d655760405162461bcd60e51b815260206004820152601e60248201527f53656e74696e656c5661756c743a20417070726f76616c206661696c656400006044820152606401610396565b5050565b6002548303611d7757505050565b60028390556040517f7ece719a480bd2bf712a3af1683c7148a9f3b6da26cc8d399ac7f0c11fa9f24490611db290859085904290869061219d565b60405180910390a1505050565b5f60208284031215611dcf575f5ffd5b81356001600160a01b0381168114611de5575f5ffd5b9392505050565b5f60208284031215611dfc575f5ffd5b5035919050565b5f60208284031215611e13575f5ffd5b813560038110611de5575f5ffd5b634e487b7160e01b5f52602160045260245ffd5b6020810160038310611e5557634e487b7160e01b5f52602160045260245ffd5b91905290565b6020808252602c908201527f53656e74696e656c5661756c743a20416d6f756e74206d75737420626520677260408201526b06561746572207468616e20360a41b606082015260800190565b634e487b7160e01b5f52601160045260245ffd5b81810381811115611ece57611ece611ea7565b92915050565b5f60208284031215611ee4575f5ffd5b5051919050565b5f60208284031215611efb575f5ffd5b81518015158114611de5575f5ffd5b6020808252601e908201527f53656e74696e656c5661756c743a205472616e73666572206661696c65640000604082015260600190565b634e487b7160e01b5f52604160045260245ffd5b5f60208284031215611f65575f5ffd5b815167ffffffffffffffff811115611f7b575f5ffd5b8201601f81018413611f8b575f5ffd5b805167ffffffffffffffff811115611fa557611fa5611f41565b604051601f8201601f19908116603f0116810167ffffffffffffffff81118282101715611fd457611fd4611f41565b604052818152828201602001861015611feb575f5ffd5b8160208401602083015e5f91810160200191909152949350505050565b5f81518084528060208401602086015e5f602082860101526020601f19601f83011685010191505092915050565b602081525f611de56020830184612008565b5f8261206257634e487b7160e01b5f52601260045260245ffd5b500490565b604081525f6120796040830185612008565b90508260208301529392505050565b608081525f61209a6080830186612008565b8460208401528360408401528281036060840152602a81527f43726f73732d636861696e20617262697472616765206f70706f7274756e69746020820152691e4819195d1958dd195960b21b604082015260608101915050949350505050565b602081525f611ece60208301600381526241726360e81b602082015260400190565b608081525f61213e60808301600381526241726360e81b602082015260400190565b8460208401528360408401528281036060840152601881527f41726320697320746865206f7074696d616c20636861696e00000000000000006020820152604081019150509392505050565b80820180821115611ece57611ece611ea7565b848152836020820152826040820152608060608201525f6121c16080830184612008565b969550505050505056fec257294ad49c215e1a248c91a86bc2612b4781d9677285cc9c14498f485ef122a26469706673582212200e87ea738d7c82d56519cb73f30ab307d9e1c0a1de298a7db51b01da276d389364736f6c634300081e0033","linkReferences":{}},"methodIdentifiers":{"MODE_DEFENSIVE()":"98d20c11","MODE_EMERGENCY()":"5c6cff88","MODE_FARMING()":"25219137","PRICE_THRESHOLD()":"5ed4c4dd","arb()":"acb5fedf","checkForCrossChainOpportunities()":"3f55d696","currentMode()":"8125092f","deposit(uint256)":"b6b55f25","getBalance(address)":"f8b2cb4f","getMode()":"4b4fd03b","oracle()":"7dc0d1d0","owner()":"8da5cb5b","rebalance()":"7d7c2a1c","safePool()":"84db6d29","setArbitrageModule(address)":"bdab1601","setRiskProfile(uint8)":"8356e035","simulateRisk(uint256)":"513b55f8","totalDeposits()":"7d882097","usdc()":"3e413bee","userDeposits(address)":"0ba36dcd","userRiskProfile(address)":"9f94c67a","withdraw(uint256)":"2e1a7d4d","yieldPool()":"8f188dd4"},"id":21}