{"abi":[{"type":"constructor","inputs":[],"stateMutability":"nonpayable"},{"type":"function","name":"PROFIT_THRESHOLD","inputs":[],"outputs":[{"name":"","type":"uint256","internalType":"uint256"}],"stateMutability":"view"},{"type":"function","name":"bestChain","inputs":[],"outputs":[{"name":"","type":"string","internalType":"string"}],"stateMutability":"view"},{"type":"function","name":"cctpContract","inputs":[],"outputs":[{"name":"","type":"address","internalType":"address"}],"stateMutability":"view"},{"type":"function","name":"chainDomains","inputs":[{"name":"","type":"string","internalType":"string"}],"outputs":[{"name":"","type":"uint32","internalType":"uint32"}],"stateMutability":"view"},{"type":"function","name":"chainPrices","inputs":[{"name":"","type":"string","internalType":"string"}],"outputs":[{"name":"","type":"uint256","internalType":"uint256"}],"stateMutability":"view"},{"type":"function","name":"chainRiskScores","inputs":[{"name":"","type":"string","internalType":"string"}],"outputs":[{"name":"","type":"uint256","internalType":"uint256"}],"stateMutability":"view"},{"type":"function","name":"chainYields","inputs":[{"name":"","type":"string","internalType":"string"}],"outputs":[{"name":"","type":"uint256","internalType":"uint256"}],"stateMutability":"view"},{"type":"function","name":"detectArbitrage","inputs":[{"name":"chainA","type":"string","internalType":"string"},{"name":"chainB","type":"string","internalType":"string"},{"name":"bridgeFee","type":"uint256","internalType":"uint256"}],"outputs":[{"name":"profitable","type":"bool","internalType":"bool"},{"name":"profit","type":"int256","internalType":"int256"}],"stateMutability":"view"},{"type":"function","name":"executeCrossChainMove","inputs":[{"name":"destinationChain","type":"string","internalType":"string"},{"name":"amount","type":"uint256","internalType":"uint256"}],"outputs":[],"stateMutability":"nonpayable"},{"type":"function","name":"getChainScore","inputs":[{"name":"chain","type":"string","internalType":"string"}],"outputs":[{"name":"","type":"uint256","internalType":"uint256"}],"stateMutability":"view"},{"type":"function","name":"getSupportedChains","inputs":[],"outputs":[{"name":"","type":"string[]","internalType":"string[]"}],"stateMutability":"view"},{"type":"function","name":"setCCTPContract","inputs":[{"name":"_cctpContract","type":"address","internalType":"address"}],"outputs":[],"stateMutability":"nonpayable"},{"type":"function","name":"setChainPrice","inputs":[{"name":"chain","type":"string","internalType":"string"},{"name":"price","type":"uint256","internalType":"uint256"}],"outputs":[],"stateMutability":"nonpayable"},{"type":"function","name":"setChainRisk","inputs":[{"name":"chain","type":"string","internalType":"string"},{"name":"riskScore","type":"uint256","internalType":"uint256"}],"outputs":[],"stateMutability":"nonpayable"},{"type":"function","name":"setChainYield","inputs":[{"name":"chain","type":"string","internalType":"string"},{"name":"apr","type":"uint256","internalType":"uint256"}],"outputs":[],"stateMutability":"nonpayable"},{"type":"function","name":"supportedChains","inputs":[{"name":"","type":"uint256","internalType":"uint256"}],"outputs":[{"name":"","type":"string","internalType":"string"}],"stateMutability":"view"},{"type":"event","name":"ArbitrageDetected","inputs":[{"name":"chainA","type":"string","indexed":false,"internalType":"string"},{"name":"chainB","type":"string","indexed":false,"internalType":"string"},{"name":"profit","type":"int256","indexed":false,"internalType":"int256"},{"name":"timestamp","type":"uint256","indexed":false,"internalType":"uint256"}],"anonymous":false},{"type":"event","name":"ChainPriceUpdated","inputs":[{"name":"chain","type":"string","indexed":true,"internalType":"string"},{"name":"price","type":"uint256","indexed":false,"internalType":"uint256"},{"name":"timestamp","type":"uint256","indexed":false,"internalType":"uint256"}],"anonymous":false},{"type":"event","name":"ChainRiskUpdated","inputs":[{"name":"chain","type":"string","indexed":true,"internalType":"string"},{"name":"riskScore","type":"uint256","indexed":false,"internalType":"uint256"},{"name":"timestamp","type":"uint256","indexed":false,"internalType":"uint256"}],"anonymous":false},{"type":"event","name":"ChainYieldUpdated","inputs":[{"name":"chain","type":"string","indexed":true,"internalType":"string"},{"name":"yield","type":"uint256","indexed":false,"internalType":"uint256"},{"name":"timestamp","type":"uint256","indexed":false,"internalType":"uint256"}],"anonymous":false},{"type":"event","name":"CrossChainMove","inputs":[{"name":"sourceChain","type":"string","indexed":false,"internalType":"string"},{"name":"destinationChain","type":"string","indexed":false,"internalType":"string"},{"name":"amount","type":"uint256","indexed":false,"internalType":"uint256"},{"name":"timestamp","type":"uint256","indexed":false,"internalType":"uint256"}],"anonymous":false}],"bytecode":{"object":"0x60036101209081526241726360e81b610140526080908152600861016081815267457468657265756d60c01b6101805260a0526101a081815267417262697472756d60c01b6101c05260c05260046101e0908152634261736560e01b6102005260e052610260604052610220908152674f7074696d69736d60c01b610240526101005261008f905f9060056102fe565b5034801561009b575f5ffd5b50600160056040516100b6906241726360e81b815260030190565b90815260408051602092819003929092018220805463ffffffff1990811663ffffffff9590951694909417905567457468657265756d60c01b8083526005600880850182905283516028958190038601812080548816905567417262697472756d60c01b808252818301849052855191829003870182208054891661a4b1179055634261736560e01b808352600480840186905287516024948190038501812080548c16612105179055674f7074696d69736d60c01b808252818701979097528851908190038a0181208054909b16600a17909a556241726360e81b808b5260016003808d018290528a5160239d8190038e018120670de0b6b3a7640000908190558b8252818a018490528c51918290038e018220819055878252818a018490528c51918290038e0182208190558682528186018490528c5191829003890182208190558a8252818a01939093528b51908190038d0181209290925582825260028282018190528b51928390038e01832066b1a2bc2ec50000908190558b8452838a018290528c51938490038e018420819055878452838a018290528c51938490038e0184208190558684528386018290528c5193849003890184208190558a8452838a01919091528b51928390038d01832055918152808201829052895190819003909b018b20603290819055978b528a860181905288519a8b90038a018b20889055928a528985018390528751998a900389018a20879055908952880181905285519788900390910187208490559186528501529051928390039091019091205561050e565b828054828255905f5260205f20908101928215610342579160200282015b8281111561034257825182906103329082610454565b509160200191906001019061031c565b5061034e929150610352565b5090565b8082111561034e575f610365828261036e565b50600101610352565b50805461037a906103d0565b5f825580601f10610389575050565b601f0160209004905f5260205f20908101906103a591906103a8565b50565b5b8082111561034e575f81556001016103a9565b634e487b7160e01b5f52604160045260245ffd5b600181811c908216806103e457607f821691505b60208210810361040257634e487b7160e01b5f52602260045260245ffd5b50919050565b601f82111561044f57805f5260205f20601f840160051c8101602085101561042d5750805b601f840160051c820191505b8181101561044c575f8155600101610439565b50505b505050565b81516001600160401b0381111561046d5761046d6103bc565b6104818161047b84546103d0565b84610408565b6020601f8211600181146104b3575f831561049c5750848201515b5f19600385901b1c1916600184901b17845561044c565b5f84815260208120601f198516915b828110156104e257878501518255602094850194600190920191016104c2565b50848210156104ff57868401515f19600387901b60f8161c191681555b50505050600190811b01905550565b6114368061051b5f395ff3fe608060405234801561000f575f5ffd5b50600436106100fb575f3560e01c806390383ce211610093578063e392f18011610063578063e392f18014610294578063e4e168ed146102be578063e639cb7b146102cc578063f307dc7d146102f7575f5ffd5b806390383ce21461022e578063955c4f5b14610241578063a21bbda614610254578063c4bffe2b1461027f575f5ffd5b806341723fcd116100ce57806341723fcd14610195578063548d496f146101c0578063590174f7146101e05780638b35237b14610226575f5ffd5b80631c955369146100ff578063224b7e3114610114578063326647cb146101445780633cb089ac14610157575b5f5ffd5b61011261010d366004610f1d565b61030a565b005b610112610122366004610f65565b600480546001600160a01b0319166001600160a01b0392909216919091179055565b610112610152366004610f1d565b6103e5565b610182610165366004610fa6565b805160208183018101805160038252928201919093012091525481565b6040519081526020015b60405180910390f35b6101826101a3366004610fa6565b805160208183018101805160028252928201919093012091525481565b6101d36101ce366004611059565b6104eb565b60405161018c919061109e565b6102116101ee366004610fa6565b805160208183018101805160058252928201919093012091525463ffffffff1681565b60405163ffffffff909116815260200161018c565b6101d3610590565b61011261023c366004610f1d565b6107c6565b61011261024f366004610f1d565b6108f7565b610182610262366004610fa6565b805160208183018101805160018252928201919093012091525481565b6102876109c0565b60405161018c91906110b0565b6102a76102a2366004611113565b610a93565b60408051921515835260208301919091520161018c565b61018266038d7ea4c6800081565b6004546102df906001600160a01b031681565b6040516001600160a01b03909116815260200161018c565b610182610305366004611186565b610c5c565b61034883838080601f0160208091040260200160405190810160405280939291908181526020018383808284375f92019190915250610cfe92505050565b61036d5760405162461bcd60e51b8152600401610364906111c5565b60405180910390fd5b806002848460405161038092919061120b565b908152604051908190036020018120919091556103a0908490849061120b565b60408051918290038220838352426020840152917f9ab6ff8f266ed70f8b1ca497fba00df89fdae95bc29c89547f0922e42adac21091015b60405180910390a2505050565b61042383838080601f0160208091040260200160405190810160405280939291908181526020018383808284375f92019190915250610cfe92505050565b61043f5760405162461bcd60e51b8152600401610364906111c5565b5f81116104a95760405162461bcd60e51b815260206004820152603260248201527f43726f7373436861696e4172626974726167653a20416d6f756e74206d75737460448201527102062652067726561746572207468616e20360741b6064820152608401610364565b7f4585b192e9523df8aa74b5416682e8c0b0e1434016a0dec091ca4aae72d4c85b838383426040516104de949392919061121a565b60405180910390a1505050565b5f81815481106104f9575f80fd5b905f5260205f20015f91509050805461051190611272565b80601f016020809104026020016040519081016040528092919081815260200182805461053d90611272565b80156105885780601f1061055f57610100808354040283529160200191610588565b820191905f5260205f20905b81548152906001019060200180831161056b57829003601f168201915b505050505081565b60605f5f5f815481106105a5576105a56112aa565b905f5260205f200180546105b890611272565b80601f01602080910402602001604051908101604052809291908181526020018280546105e490611272565b801561062f5780601f106106065761010080835404028352916020019161062f565b820191905f5260205f20905b81548152906001019060200180831161061257829003601f168201915b505050505090505f6106e05f5f8154811061064c5761064c6112aa565b905f5260205f2001805461065f90611272565b80601f016020809104026020016040519081016040528092919081815260200182805461068b90611272565b80156106d65780601f106106ad576101008083540402835291602001916106d6565b820191905f5260205f20905b8154815290600101906020018083116106b957829003601f168201915b5050505050610d5f565b905060015b5f548110156107be575f6107045f838154811061064c5761064c6112aa565b9050828111156107b5578092505f8281548110610723576107236112aa565b905f5260205f2001805461073690611272565b80601f016020809104026020016040519081016040528092919081815260200182805461076290611272565b80156107ad5780601f10610784576101008083540402835291602001916107ad565b820191905f5260205f20905b81548152906001019060200180831161079057829003601f168201915b505050505093505b506001016106e5565b509092915050565b61080483838080601f0160208091040260200160405190810160405280939291908181526020018383808284375f92019190915250610cfe92505050565b6108205760405162461bcd60e51b8152600401610364906111c5565b60648111156108885760405162461bcd60e51b815260206004820152602e60248201527f43726f7373436861696e4172626974726167653a205269736b2073636f72652060448201526d06d757374206265203c3d203130360941b6064820152608401610364565b806003848460405161089b92919061120b565b908152604051908190036020018120919091556108bb908490849061120b565b60408051918290038220838352426020840152917f7845d29ae504d7f0a85581244de81a6c9dbe809cea4386b79d75ef6b75de1a7891016103d8565b61093583838080601f0160208091040260200160405190810160405280939291908181526020018383808284375f92019190915250610cfe92505050565b6109515760405162461bcd60e51b8152600401610364906111c5565b806001848460405161096492919061120b565b90815260405190819003602001812091909155610984908490849061120b565b60408051918290038220838352426020840152917fd2179fa99c4fa30a697447ce8a174f47ead32160e9df7660fd3ae0fdae79469991016103d8565b60605f805480602002602001604051908101604052809291908181526020015f905b82821015610a8a578382905f5260205f200180546109ff90611272565b80601f0160208091040260200160405190810160405280929190818152602001828054610a2b90611272565b8015610a765780601f10610a4d57610100808354040283529160200191610a76565b820191905f5260205f20905b815481529060010190602001808311610a5957829003601f168201915b5050505050815260200190600101906109e2565b50505050905090565b5f5f610ad387878080601f0160208091040260200160405190810160405280939291908181526020018383808284375f92019190915250610cfe92505050565b610b2f5760405162461bcd60e51b815260206004820152602760248201527f43726f7373436861696e4172626974726167653a20556e737570706f7274656460448201526620636861696e4160c81b6064820152608401610364565b610b6d85858080601f0160208091040260200160405190810160405280939291908181526020018383808284375f92019190915250610cfe92505050565b610bc95760405162461bcd60e51b815260206004820152602760248201527f43726f7373436861696e4172626974726167653a20556e737570706f727465646044820152661031b430b4b72160c91b6064820152608401610364565b5f60018888604051610bdc92919061120b565b90815260200160405180910390205490505f60018787604051610c0092919061120b565b90815260200160405180910390205490505f81831115610c2b57610c2482846112d2565b9050610c38565b610c3583836112d2565b90505b610c4286826112d2565b66038d7ea4c6800081139b909a5098505050505050505050565b5f610c9b83838080601f0160208091040260200160405190810160405280939291908181526020018383808284375f92019190915250610cfe92505050565b610cb75760405162461bcd60e51b8152600401610364906111c5565b610cf583838080601f0160208091040260200160405190810160405280939291908181526020018383808284375f92019190915250610d5f92505050565b90505b92915050565b5f805b5f54811015610d575782805190602001205f8281548110610d2457610d246112aa565b905f5260205f2001604051610d3991906112f8565b604051809103902003610d4f5750600192915050565b600101610d01565b505f92915050565b5f5f600283604051610d71919061138e565b90815260200160405180910390205490505f600384604051610d93919061138e565b90815260200160405180910390205490505f600185604051610db5919061138e565b90815260200160405180910390205490505f670de0b6b3a7640000821115610df057610de9670de0b6b3a7640000836113a4565b9050610e05565b610e0282670de0b6b3a76400006113a4565b90505b662386f26fc1000080821115610e19578091505b5f81610e2d84670de0b6b3a76400006113b7565b610e3791906113ce565b610e4990670de0b6b3a76400006113a4565b90505f6064610e598860286113b7565b610e6391906113ce565b90505f6064610e7288826113a4565b610e8390662386f26fc100006113b7565b610e8e90601e6113b7565b610e9891906113ce565b90505f6064610ea885601e6113b7565b610eb291906113ce565b905080610ebf83856113ed565b610ec991906113ed565b9b9a5050505050505050505050565b5f5f83601f840112610ee8575f5ffd5b50813567ffffffffffffffff811115610eff575f5ffd5b602083019150836020828501011115610f16575f5ffd5b9250929050565b5f5f5f60408486031215610f2f575f5ffd5b833567ffffffffffffffff811115610f45575f5ffd5b610f5186828701610ed8565b909790965060209590950135949350505050565b5f60208284031215610f75575f5ffd5b81356001600160a01b0381168114610f8b575f5ffd5b9392505050565b634e487b7160e01b5f52604160045260245ffd5b5f60208284031215610fb6575f5ffd5b813567ffffffffffffffff811115610fcc575f5ffd5b8201601f81018413610fdc575f5ffd5b803567ffffffffffffffff811115610ff657610ff6610f92565b604051601f8201601f19908116603f0116810167ffffffffffffffff8111828210171561102557611025610f92565b60405281815282820160200186101561103c575f5ffd5b816020840160208301375f91810160200191909152949350505050565b5f60208284031215611069575f5ffd5b5035919050565b5f81518084528060208401602086015e5f602082860101526020601f19601f83011685010191505092915050565b602081525f610cf56020830184611070565b5f602082016020835280845180835260408501915060408160051b8601019250602086015f5b8281101561110757603f198786030184526110f2858351611070565b945060209384019391909101906001016110d6565b50929695505050505050565b5f5f5f5f5f60608688031215611127575f5ffd5b853567ffffffffffffffff81111561113d575f5ffd5b61114988828901610ed8565b909650945050602086013567ffffffffffffffff811115611168575f5ffd5b61117488828901610ed8565b96999598509660400135949350505050565b5f5f60208385031215611197575f5ffd5b823567ffffffffffffffff8111156111ad575f5ffd5b6111b985828601610ed8565b90969095509350505050565b60208082526026908201527f43726f7373436861696e4172626974726167653a20556e737570706f727465646040820152651031b430b4b760d11b606082015260800190565b818382375f9101908152919050565b60808152600360808201526241726360e81b60a082015260c060208201528360c0820152838560e08301375f60e085830101525f60e0601f19601f870116830101905083604083015282606083015295945050505050565b600181811c9082168061128657607f821691505b6020821081036112a457634e487b7160e01b5f52602260045260245ffd5b50919050565b634e487b7160e01b5f52603260045260245ffd5b634e487b7160e01b5f52601160045260245ffd5b8181035f8312801583831316838312821617156112f1576112f16112be565b5092915050565b5f5f83545f8160011c9050600182168061131357607f821691505b60208210810361133157634e487b7160e01b5f52602260045260245ffd5b808015611345576001811461135a57611107565b60ff1984168752821515830287019450611107565b5f888152602090205f5b8481101561138057815489820152600190910190602001611364565b505050940195945050505050565b5f82518060208501845e5f920191825250919050565b81810381811115610cf857610cf86112be565b8082028115828204841417610cf857610cf86112be565b5f826113e857634e487b7160e01b5f52601260045260245ffd5b500490565b80820180821115610cf857610cf86112be56fea26469706673582212205e4720678aa3a172a55f388047d3402ec1f84fe7b003afbe727cc5b5aec1c78f64736f6c634300081e0033","linkReferences":{}},"methodIdentifiers":{"PROFIT_THRESHOLD()":"e4e168ed","bestChain()":"8b35237b","cctpContract()":"e639cb7b","chainDomains(string)":"590174f7","chainPrices(string)":"a21bbda6","chainRiskScores(string)":"3cb089ac","chainYields(string)":"41723fcd","detectArbitrage(string,string,uint256)":"e392f180","executeCrossChainMove(string,uint256)":"326647cb","getChainScore(string)":"f307dc7d","getSupportedChains()":"c4bffe2b","setCCTPContract(address)":"224b7e31","setChainPrice(string,uint256)":"955c4f5b","setChainRisk(string,uint256)":"90383ce2","setChainYield(string,uint256)":"1c955369","supportedChains(uint256)":"548d496f"},"id":16}