{"abi":[{"type":"constructor","inputs":[],"stateMutability":"nonpayable"},{"type":"function","name":"getScores","inputs":[],"outputs":[{"name":"_yieldScore","type":"uint256","internalType":"uint256"},{"name":"_securityScore","type":"uint256","internalType":"uint256"},{"name":"_liquidityScore","type":"uint256","internalType":"uint256"}],"stateMutability":"view"},{"type":"function","name":"liquidityScore","inputs":[],"outputs":[{"name":"","type":"uint256","internalType":"uint256"}],"stateMutability":"view"},{"type":"function","name":"owner","inputs":[],"outputs":[{"name":"","type":"address","internalType":"address"}],"stateMutability":"view"},{"type":"function","name":"securityScore","inputs":[],"outputs":[{"name":"","type":"uint256","internalType":"uint256"}],"stateMutability":"view"},{"type":"function","name":"setLiquidityScore","inputs":[{"name":"_liquidityScore","type":"uint256","internalType":"uint256"}],"outputs":[],"stateMutability":"nonpayable"},{"type":"function","name":"setNegativeScenario","inputs":[],"outputs":[],"stateMutability":"nonpayable"},{"type":"function","name":"setNeutralScenario","inputs":[],"outputs":[],"stateMutability":"nonpayable"},{"type":"function","name":"setPositiveScenario","inputs":[],"outputs":[],"stateMutability":"nonpayable"},{"type":"function","name":"setScores","inputs":[{"name":"_yieldScore","type":"uint256","internalType":"uint256"},{"name":"_securityScore","type":"uint256","internalType":"uint256"},{"name":"_liquidityScore","type":"uint256","internalType":"uint256"}],"outputs":[],"stateMutability":"nonpayable"},{"type":"function","name":"setSecurityScore","inputs":[{"name":"_securityScore","type":"uint256","internalType":"uint256"}],"outputs":[],"stateMutability":"nonpayable"},{"type":"function","name":"setYieldScore","inputs":[{"name":"_yieldScore","type":"uint256","internalType":"uint256"}],"outputs":[],"stateMutability":"nonpayable"},{"type":"function","name":"yieldScore","inputs":[],"outputs":[{"name":"","type":"uint256","internalType":"uint256"}],"stateMutability":"view"},{"type":"event","name":"ScoresUpdated","inputs":[{"name":"yieldScore","type":"uint256","indexed":false,"internalType":"uint256"},{"name":"securityScore","type":"uint256","indexed":false,"internalType":"uint256"},{"name":"liquidityScore","type":"uint256","indexed":false,"internalType":"uint256"}],"anonymous":false}],"bytecode":{"object":"0x6080604052348015600e575f5ffd5b50600380546001600160a01b031916331790556113885f81905560018190556002556106838061003d5f395ff3fe608060405234801561000f575f5ffd5b50600436106100b1575f3560e01c80638da5cb5b1161006e5780638da5cb5b14610137578063b574f71a14610162578063c7375e0f1461016a578063de71bdab1461017d578063e0e61a0114610185578063f6bca5771461018e575f5ffd5b80631ea1380c146100b557806325d5f158146100dd57806328471bfc146100f25780634851f27f146101055780634ed21ff2146101185780636019df841461012f575b5f5ffd5b5f54600154600254604080519384526020840192909252908201526060015b60405180910390f35b6100f06100eb366004610555565b610196565b005b6100f0610100366004610555565b610227565b6100f0610113366004610555565b6102a5565b61012160025481565b6040519081526020016100d4565b6100f0610324565b60035461014a906001600160a01b031681565b6040516001600160a01b0390911681526020016100d4565b6101215f5481565b6100f061017836600461056c565b610391565b6100f061047f565b61012160015481565b6100f06104ea565b6003546001600160a01b031633146101c95760405162461bcd60e51b81526004016101c090610595565b60405180910390fd5b6127108111156101eb5760405162461bcd60e51b81526004016101c0906105e2565b60028190555f5460015460408051928352602083019190915281018290525f51602061062e5f395f51905f52906060015b60405180910390a150565b6003546001600160a01b031633146102515760405162461bcd60e51b81526004016101c090610595565b6127108111156102735760405162461bcd60e51b81526004016101c0906105e2565b60018190555f5460025460408051928352602083018490528201525f51602061062e5f395f51905f529060600161021c565b6003546001600160a01b031633146102cf5760405162461bcd60e51b81526004016101c090610595565b6127108111156102f15760405162461bcd60e51b81526004016101c0906105e2565b5f8190556001546002546040805184815260208101939093528201525f51602061062e5f395f51905f529060600161021c565b6003546001600160a01b0316331461034e5760405162461bcd60e51b81526004016101c090610595565b6113885f819055600181905560028190556040805182815260208101839052908101919091525f51602061062e5f395f51905f52906060015b60405180910390a1565b6003546001600160a01b031633146103bb5760405162461bcd60e51b81526004016101c090610595565b61271083111580156103cf57506127108211155b80156103dd57506127108111155b61043e5760405162461bcd60e51b815260206004820152602c60248201527f4d6f636b53636f72696e67436f6e74726163743a2053636f726573206d75737460448201526b0206265203c3d2031303030360a41b60648201526084016101c0565b5f8390556001829055600281905560408051848152602081018490529081018290525f51602061062e5f395f51905f529060600160405180910390a1505050565b6003546001600160a01b031633146104a95760405162461bcd60e51b81526004016101c090610595565b610bb85f8190556107d06001819055610fa06002819055604080519384526020840192909252908201525f51602061062e5f395f51905f5290606001610387565b6003546001600160a01b031633146105145760405162461bcd60e51b81526004016101c090610595565b611b585f819055611f406001819055611d4c6002819055604080519384526020840192909252908201525f51602061062e5f395f51905f5290606001610387565b5f60208284031215610565575f5ffd5b5035919050565b5f5f5f6060848603121561057e575f5ffd5b505081359360208301359350604090920135919050565b6020808252602d908201527f4d6f636b53636f72696e67436f6e74726163743a204f6e6c79206f776e65722060408201526c63616e2063616c6c207468697360981b606082015260800190565b6020808252602b908201527f4d6f636b53636f72696e67436f6e74726163743a2053636f7265206d7573742060408201526a06265203c3d2031303030360ac1b60608201526080019056fe5ca32425b59cd0caefaadbd94acbbc7df6045d5c630e99e721cab086c5acc4a2a2646970667358221220297538d5da39dd8545276ff0639098c390487279750d4b14d3cf0a56c0dede1c64736f6c634300081e0033","linkReferences":{}},"methodIdentifiers":{"getScores()":"1ea1380c","liquidityScore()":"4ed21ff2","owner()":"8da5cb5b","securityScore()":"e0e61a01","setLiquidityScore(uint256)":"25d5f158","setNegativeScenario()":"de71bdab","setNeutralScenario()":"6019df84","setPositiveScenario()":"f6bca577","setScores(uint256,uint256,uint256)":"c7375e0f","setSecurityScore(uint256)":"28471bfc","setYieldScore(uint256)":"4851f27f","yieldScore()":"b574f71a"},"id":29}