{"abi":[{"type":"constructor","inputs":[{"name":"_usdc","type":"address","internalType":"address"},{"name":"_oracle","type":"address","internalType":"address"},{"name":"_safePool","type":"address","internalType":"address"},{"name":"_yieldPool","type":"address","internalType":"address"}],"stateMutability":"nonpayable"},{"type":"function","name":"MODE_DEFENSIVE","inputs":[],"outputs":[{"name":"","type":"uint256","internalType":"uint256"}],"stateMutability":"view"},{"type":"function","name":"MODE_EMERGENCY","inputs":[],"outputs":[{"name":"","type":"uint256","internalType":"uint256"}],"stateMutability":"view"},{"type":"function","name":"MODE_FARMING","inputs":[],"outputs":[{"name":"","type":"uint256","internalType":"uint256"}],"stateMutability":"view"},{"type":"function","name":"PRICE_THRESHOLD","inputs":[],"outputs":[{"name":"","type":"uint256","internalType":"uint256"}],"stateMutability":"view"},{"type":"function","name":"arb","inputs":[],"outputs":[{"name":"","type":"address","internalType":"contract CrossChainArbitrage"}],"stateMutability":"view"},{"type":"function","name":"checkForCrossChainOpportunities","inputs":[],"outputs":[],"stateMutability":"nonpayable"},{"type":"function","name":"currentMode","inputs":[],"outputs":[{"name":"","type":"uint256","internalType":"uint256"}],"stateMutability":"view"},{"type":"function","name":"deposit","inputs":[{"name":"amount","type":"uint256","internalType":"uint256"}],"outputs":[],"stateMutability":"nonpayable"},{"type":"function","name":"getBalance","inputs":[{"name":"user","type":"address","internalType":"address"}],"outputs":[{"name":"","type":"uint256","internalType":"uint256"}],"stateMutability":"view"},{"type":"function","name":"getMode","inputs":[],"outputs":[{"name":"","type":"uint256","internalType":"uint256"}],"stateMutability":"view"},{"type":"function","name":"getUnifiedVaultBalance","inputs":[],"outputs":[{"name":"","type":"uint256","internalType":"uint256"}],"stateMutability":"view"},{"type":"function","name":"oracle","inputs":[],"outputs":[{"name":"","type":"address","internalType":"contract OracleFeed"}],"stateMutability":"view"},{"type":"function","name":"owner","inputs":[],"outputs":[{"name":"","type":"address","internalType":"address"}],"stateMutability":"view"},{"type":"function","name":"rebalance","inputs":[],"outputs":[],"stateMutability":"nonpayable"},{"type":"function","name":"safePool","inputs":[],"outputs":[{"name":"","type":"address","internalType":"contract SafePool"}],"stateMutability":"view"},{"type":"function","name":"setArbitrageModule","inputs":[{"name":"arbAddress","type":"address","internalType":"address"}],"outputs":[],"stateMutability":"nonpayable"},{"type":"function","name":"setRiskProfile","inputs":[{"name":"profile","type":"uint8","internalType":"enum SentinelVault.RiskProfile"}],"outputs":[],"stateMutability":"nonpayable"},{"type":"function","name":"simulateRisk","inputs":[{"name":"newPrice","type":"uint256","internalType":"uint256"}],"outputs":[{"name":"","type":"bool","internalType":"bool"}],"stateMutability":"view"},{"type":"function","name":"totalDeposits","inputs":[],"outputs":[{"name":"","type":"uint256","internalType":"uint256"}],"stateMutability":"view"},{"type":"function","name":"triggerBestChainSwitch","inputs":[],"outputs":[],"stateMutability":"nonpayable"},{"type":"function","name":"usdc","inputs":[],"outputs":[{"name":"","type":"address","internalType":"contract IERC20"}],"stateMutability":"view"},{"type":"function","name":"userDeposits","inputs":[{"name":"","type":"address","internalType":"address"}],"outputs":[{"name":"","type":"uint256","internalType":"uint256"}],"stateMutability":"view"},{"type":"function","name":"userRiskProfile","inputs":[{"name":"","type":"address","internalType":"address"}],"outputs":[{"name":"","type":"uint8","internalType":"enum SentinelVault.RiskProfile"}],"stateMutability":"view"},{"type":"function","name":"vaultBalance","inputs":[{"name":"","type":"string","internalType":"string"}],"outputs":[{"name":"","type":"uint256","internalType":"uint256"}],"stateMutability":"view"},{"type":"function","name":"withdraw","inputs":[{"name":"amount","type":"uint256","internalType":"uint256"}],"outputs":[],"stateMutability":"nonpayable"},{"type":"function","name":"yieldPool","inputs":[],"outputs":[{"name":"","type":"address","internalType":"contract YieldPool"}],"stateMutability":"view"},{"type":"event","name":"CrossChainDecision","inputs":[{"name":"selectedChain","type":"string","indexed":false,"internalType":"string"},{"name":"price","type":"uint256","indexed":false,"internalType":"uint256"},{"name":"timestamp","type":"uint256","indexed":false,"internalType":"uint256"},{"name":"reason","type":"string","indexed":false,"internalType":"string"}],"anonymous":false},{"type":"event","name":"Deposited","inputs":[{"name":"user","type":"address","indexed":true,"internalType":"address"},{"name":"amount","type":"uint256","indexed":false,"internalType":"uint256"}],"anonymous":false},{"type":"event","name":"ModeChanged","inputs":[{"name":"newMode","type":"uint256","indexed":false,"internalType":"uint256"},{"name":"price","type":"uint256","indexed":false,"internalType":"uint256"},{"name":"timestamp","type":"uint256","indexed":false,"internalType":"uint256"},{"name":"reason","type":"string","indexed":false,"internalType":"string"}],"anonymous":false},{"type":"event","name":"Rebalanced","inputs":[{"name":"mode","type":"uint256","indexed":false,"internalType":"uint256"},{"name":"amount","type":"uint256","indexed":false,"internalType":"uint256"}],"anonymous":false},{"type":"event","name":"Withdrawn","inputs":[{"name":"user","type":"address","indexed":true,"internalType":"address"},{"name":"amount","type":"uint256","indexed":false,"internalType":"uint256"}],"anonymous":false}],"bytecode":{"object":"0x610100604052348015610010575f5ffd5b5060405161318738038061318783398101604081905261002f9161031d565b6001600160a01b0384166100965760405162461bcd60e51b815260206004820152602360248201527f53656e74696e656c5661756c743a20496e76616c69642055534443206164647260448201526265737360e81b60648201526084015b60405180910390fd5b6001600160a01b0383166100fa5760405162461bcd60e51b815260206004820152602560248201527f53656e74696e656c5661756c743a20496e76616c6964204f7261636c65206164604482015264647265737360d81b606482015260840161008d565b6001600160a01b0382166101605760405162461bcd60e51b815260206004820152602760248201527f53656e74696e656c5661756c743a20496e76616c69642053616665506f6f6c206044820152666164647265737360c81b606482015260840161008d565b6001600160a01b0381166101c75760405162461bcd60e51b815260206004820152602860248201527f53656e74696e656c5661756c743a20496e76616c6964205969656c64506f6f6c604482015267206164647265737360c01b606482015260840161008d565b6001600160a01b0380851660805283811660a081905283821660c05290821660e052600180546001600160a01b0319163317905560408051634c6afee560e11b815290515f92916398d5fdca9160048083019260209291908290030181865afa158015610236573d5f5f3e3d5ffd5b505050506040513d601f19601f8201168201806040525081019061025a919061036e565b90506102a25f826040518060400160405280601b81526020017f4641524d494e473a20696e697469616c206465706c6f796d656e7400000000008152506102ac60201b60201c565b50505050506103cf565b60025483036102ba57505050565b60028390556040517f7ece719a480bd2bf712a3af1683c7148a9f3b6da26cc8d399ac7f0c11fa9f244906102f5908590859042908690610385565b60405180910390a1505050565b80516001600160a01b0381168114610318575f5ffd5b919050565b5f5f5f5f60808587031215610330575f5ffd5b61033985610302565b935061034760208601610302565b925061035560408601610302565b915061036360608601610302565b905092959194509250565b5f6020828403121561037e575f5ffd5b5051919050565b848152836020820152826040820152608060608201525f8251806080840152806020850160a085015e5f60a0828501015260a0601f19601f83011684010191505095945050505050565b60805160a05160c05160e051612c746105135f395f8181610330015281816106c7015281816107c90152818161080401528181610faf015281816112ec015281816116e9015281816118e501528181611cad01528181611ce801528181611e2d01528181611e68015281816120b401526120ef01525f81816102f60152818161092301528181610a2401528181610a5f015281816110400152818161137d015281816117bc01528181611971015281816119ac01528181611aed01528181611b2801528181611c2101528181612162015261219d01525f81816102b301528181611165015281816114a301526115c401525f81816102110152818161088201528181610aad01528181610b9a01528181610f310152818161126e01528181611a6f01528181611daf01528181611fdf015281816123cb015261245c0152612c745ff3fe608060405234801561000f575f5ffd5b5060043610610187575f3560e01c80637dc0d1d0116100d957806398d20c1111610093578063b6b55f251161006e578063b6b55f251461039b578063bdab1601146103ae578063d5eed5d8146103c1578063f8b2cb4f146103c9575f5ffd5b806398d20c11146103525780639f94c67a1461035a578063acb5fedf14610389575f5ffd5b80637dc0d1d0146102ae5780638125092f146102d55780638356e035146102de57806384db6d29146102f15780638da5cb5b146103185780638f188dd41461032b575f5ffd5b80633f55d696116101445780635c6cff881161011f5780635c6cff88146102865780635ed4c4dd1461028e5780637d7c2a1c1461029d5780637d882097146102a5575f5ffd5b80633f55d6961461024b5780634b4fd03b14610253578063513b55f81461025b575f5ffd5b80630ba36dcd1461018b5780631e1e3e0f146101bd57806325219137146101e857806327372982146101ef5780632e1a7d4d146101f75780633e413bee1461020c575b5f5ffd5b6101aa61019936600461256c565b60036020525f908152604090205481565b6040519081526020015b60405180910390f35b6101aa6101cb366004612605565b805160208183018101805160068252928201919093012091525481565b6101aa5f81565b6101aa6103f1565b61020a61020536600461267f565b6105f0565b005b6102337f000000000000000000000000000000000000000000000000000000000000000081565b6040516001600160a01b0390911681526020016101b4565b61020a610c61565b6002546101aa565b61027661026936600461267f565b670ddd2935029d80001190565b60405190151581526020016101b4565b6101aa600281565b6101aa670ddd2935029d800081565b61020a6115c1565b6101aa60055481565b6102337f000000000000000000000000000000000000000000000000000000000000000081565b6101aa60025481565b61020a6102ec366004612696565b611f63565b6102337f000000000000000000000000000000000000000000000000000000000000000081565b600154610233906001600160a01b031681565b6102337f000000000000000000000000000000000000000000000000000000000000000081565b6101aa600181565b61037c61036836600461256c565b60046020525f908152604090205460ff1681565b6040516101b491906126c8565b5f54610233906001600160a01b031681565b61020a6103a936600461267f565b611f9e565b61020a6103bc36600461256c565b61222f565b61020a612328565b6101aa6103d736600461256c565b6001600160a01b03165f9081526003602052604090205490565b5f805481906001600160a01b0316156104e0575f5f5f9054906101000a90046001600160a01b03166001600160a01b031663c4bffe2b6040518163ffffffff1660e01b81526004015f60405180830381865afa158015610453573d5f5f3e3d5ffd5b505050506040513d5f823e601f3d908101601f1916820160405261047a919081019061273b565b90505f5b81518110156104d9575f82828151811061049a5761049a612807565b602002602001015190506006816040516104b4919061281b565b908152602001604051809103902054846104ce9190612845565b93505060010161047e565b5050919050565b604080516241726360e81b81526006600382015290519081900360230190205461050a9082612845565b905060066040516105299067457468657265756d60c01b815260080190565b908152602001604051809103902054816105439190612845565b905060066040516105629067417262697472756d60c01b815260080190565b9081526020016040518091039020548161057c9190612845565b9050600660405161059790634261736560e01b815260040190565b908152602001604051809103902054816105b19190612845565b905060066040516105d090674f7074696d69736d60c01b815260080190565b908152602001604051809103902054816105ea9190612845565b92915050565b5f81116106185760405162461bcd60e51b815260040161060f90612858565b60405180910390fd5b335f908152600360205260409020548111156106825760405162461bcd60e51b815260206004820152602360248201527f53656e74696e656c5661756c743a20496e73756666696369656e742062616c616044820152626e636560e81b606482015260840161060f565b335f90815260036020526040812080548392906106a09084906128a4565b925050819055508060055f8282546106b891906128a4565b9091555050600254610916575f7f00000000000000000000000000000000000000000000000000000000000000006001600160a01b031663853828b66040518163ffffffff1660e01b81526004016020604051808303815f875af1158015610722573d5f5f3e3d5ffd5b505050506040513d601f19601f8201168201806040525081019061074691906128b7565b9050818110156107af5760405162461bcd60e51b815260206004820152602e60248201527f53656e74696e656c5661756c743a20496e73756666696369656e742066756e6460448201526d1cc81a5b88165a595b19141bdbdb60921b606482015260840161060f565b81811115610866575f6107c283836128a4565b90506107ee7f0000000000000000000000000000000000000000000000000000000000000000826123a6565b60405163b6b55f2560e01b8152600481018290527f00000000000000000000000000000000000000000000000000000000000000006001600160a01b03169063b6b55f25906024015b5f604051808303815f87803b15801561084e575f5ffd5b505af1158015610860573d5f5f3e3d5ffd5b50505050505b60405163a9059cbb60e01b8152336004820152602481018390527f00000000000000000000000000000000000000000000000000000000000000006001600160a01b03169063a9059cbb906044016020604051808303815f875af11580156108d0573d5f5f3e3d5ffd5b505050506040513d601f19601f820116820180604052508101906108f491906128ce565b6109105760405162461bcd60e51b815260040161060f906128ed565b50610c28565b600160025403610a96575f7f00000000000000000000000000000000000000000000000000000000000000006001600160a01b031663853828b66040518163ffffffff1660e01b81526004016020604051808303815f875af115801561097e573d5f5f3e3d5ffd5b505050506040513d601f19601f820116820180604052508101906109a291906128b7565b905081811015610a0a5760405162461bcd60e51b815260206004820152602d60248201527f53656e74696e656c5661756c743a20496e73756666696369656e742066756e6460448201526c1cc81a5b8814d85999541bdbdb609a1b606482015260840161060f565b81811115610866575f610a1d83836128a4565b9050610a497f0000000000000000000000000000000000000000000000000000000000000000826123a6565b60405163b6b55f2560e01b8152600481018290527f00000000000000000000000000000000000000000000000000000000000000006001600160a01b03169063b6b55f2590602401610837565b6040516370a0823160e01b815230600482015281907f00000000000000000000000000000000000000000000000000000000000000006001600160a01b0316906370a0823190602401602060405180830381865afa158015610afa573d5f5f3e3d5ffd5b505050506040513d601f19601f82011682018060405250810190610b1e91906128b7565b1015610b7e5760405162461bcd60e51b815260206004820152602960248201527f53656e74696e656c5661756c743a20496e73756666696369656e74207661756c604482015268742062616c616e636560b81b606482015260840161060f565b60405163a9059cbb60e01b8152336004820152602481018290527f00000000000000000000000000000000000000000000000000000000000000006001600160a01b03169063a9059cbb906044016020604051808303815f875af1158015610be8573d5f5f3e3d5ffd5b505050506040513d601f19601f82011682018060405250810190610c0c91906128ce565b610c285760405162461bcd60e51b815260040161060f906128ed565b60405181815233907f7084f5476618d8e60b11ef0d7d3f06914655adb8793e28ff7f018d4c76d505d5906020015b60405180910390a250565b5f546001600160a01b0316610c885760405162461bcd60e51b815260040161060f90612924565b5f5f5f9054906101000a90046001600160a01b03166001600160a01b0316638b35237b6040518163ffffffff1660e01b81526004015f60405180830381865afa158015610cd7573d5f5f3e3d5ffd5b505050506040513d5f823e601f3d908101601f19168201604052610cfe919081019061296b565b604080518082018252600381526241726360e81b6020808301919091528351908401205f8054935163510dded360e11b8152949550919385937f4285c87b43c5b190dc6dfaf14facb7e652219e94fdff847501c640d0481ed4e490921492916001600160a01b03169063a21bbda690610d7b9086906004016129d3565b602060405180830381865afa158015610d96573d5f5f3e3d5ffd5b505050506040513d601f19601f82011682018060405250810190610dba91906128b7565b335f9081526004602052604081205491925060ff909116908080836002811115610de657610de66126b4565b03610e055750670ddddf1b239200009050670dd280b9144a0000610e4e565b6001836002811115610e1957610e196126b4565b03610e385750670ddd2935029d80009050670dcef33a6f838000610e4e565b50670ddb6275b03a40009050670dcb65bbcabd00005b80841015610eaa57600160025414158015610e6b57506002805414155b15610e7857610e786115c1565b5f516020612c1f5f395f51905f52888542604051610e98939291906129e5565b60405180910390a15050505050505050565b846114a0578184101561116257600254610ec657610ec66115c1565b5f805460408051630722968160e31b815290516001600160a01b0390921692633914b4089260048084019382900301818387803b158015610f05575f5ffd5b505af1158015610f17573d5f5f3e3d5ffd5b50506040516370a0823160e01b81523060048201525f92507f00000000000000000000000000000000000000000000000000000000000000006001600160a01b031691506370a0823190602401602060405180830381865afa158015610f7f573d5f5f3e3d5ffd5b505050506040513d601f19601f82011682018060405250810190610fa391906128b7565b600254909150611034577f00000000000000000000000000000000000000000000000000000000000000006001600160a01b03166312b583496040518163ffffffff1660e01b8152600401602060405180830381865afa158015611009573d5f5f3e3d5ffd5b505050506040513d601f19601f8201168201806040525081019061102d91906128b7565b90506110c1565b6001600254036110c1577f00000000000000000000000000000000000000000000000000000000000000006001600160a01b03166312b583496040518163ffffffff1660e01b8152600401602060405180830381865afa15801561109a573d5f5f3e3d5ffd5b505050506040513d601f19601f820116820180604052508101906110be91906128b7565b90505b8015611134575f6110d3600483612a79565b5f546040516312d046c760e31b81529192506001600160a01b031690639682363890611105908d908590600401612a98565b5f604051808303815f87803b15801561111c575f5ffd5b505af115801561112e573d5f5f3e3d5ffd5b50505050505b5f516020612c1f5f395f51905f5289864260405161115493929190612ab9565b60405180910390a1506115b7565b5f7f00000000000000000000000000000000000000000000000000000000000000006001600160a01b03166398d5fdca6040518163ffffffff1660e01b8152600401602060405180830381865afa1580156111bf573d5f5f3e3d5ffd5b505050506040513d601f19601f820116820180604052508101906111e391906128b7565b90508281101580156111f6575060025415155b15611203576112036115c1565b5f805460408051630722968160e31b815290516001600160a01b0390921692633914b4089260048084019382900301818387803b158015611242575f5ffd5b505af1158015611254573d5f5f3e3d5ffd5b50506040516370a0823160e01b81523060048201525f92507f00000000000000000000000000000000000000000000000000000000000000006001600160a01b031691506370a0823190602401602060405180830381865afa1580156112bc573d5f5f3e3d5ffd5b505050506040513d601f19601f820116820180604052508101906112e091906128b7565b600254909150611371577f00000000000000000000000000000000000000000000000000000000000000006001600160a01b03166312b583496040518163ffffffff1660e01b8152600401602060405180830381865afa158015611346573d5f5f3e3d5ffd5b505050506040513d601f19601f8201168201806040525081019061136a91906128b7565b90506113fe565b6001600254036113fe577f00000000000000000000000000000000000000000000000000000000000000006001600160a01b03166312b583496040518163ffffffff1660e01b8152600401602060405180830381865afa1580156113d7573d5f5f3e3d5ffd5b505050506040513d601f19601f820116820180604052508101906113fb91906128b7565b90505b8015611471575f611410600483612a79565b5f546040516312d046c760e31b81529192506001600160a01b031690639682363890611442908e908590600401612a98565b5f604051808303815f87803b158015611459575f5ffd5b505af115801561146b573d5f5f3e3d5ffd5b50505050505b5f516020612c1f5f395f51905f528a874260405161149193929190612b3e565b60405180910390a150506115b7565b5f7f00000000000000000000000000000000000000000000000000000000000000006001600160a01b03166398d5fdca6040518163ffffffff1660e01b8152600401602060405180830381865afa1580156114fd573d5f5f3e3d5ffd5b505050506040513d601f19601f8201168201806040525081019061152191906128b7565b905082811080156115325750600254155b1561153f5761153f6115c1565b6040805160808082526003908201526241726360e81b60a082015260208101879052428183015260c0606082018190526018908201527f41726320697320746865206f7074696d616c20636861696e000000000000000060e082015290515f516020612c1f5f395f51905f52918190036101000190a1505b5050505050505050565b5f7f00000000000000000000000000000000000000000000000000000000000000006001600160a01b03166398d5fdca6040518163ffffffff1660e01b8152600401602060405180830381865afa15801561161e573d5f5f3e3d5ffd5b505050506040513d601f19601f8201168201806040525081019061164291906128b7565b335f9081526004602052604081205491925060ff90911690808083600281111561166e5761166e6126b4565b0361168d5750670ddddf1b239200009050670dd280b9144a00006116d6565b60018360028111156116a1576116a16126b4565b036116c05750670ddd2935029d80009050670dcef33a6f8380006116d6565b50670ddb6275b03a40009050670dcb65bbcabd00005b5f80828610156118d4576002546117b0577f00000000000000000000000000000000000000000000000000000000000000006001600160a01b031663853828b66040518163ffffffff1660e01b81526004016020604051808303815f875af1158015611744573d5f5f3e3d5ffd5b505050506040513d601f19601f8201168201806040525081019061176891906128b7565b90506117a7600287604051806040016040528060198152602001781153515491d15390d64e8819195c1959c819195d1958dd1959603a1b815250612516565b6001915061187f565b60016002540361187f577f00000000000000000000000000000000000000000000000000000000000000006001600160a01b031663853828b66040518163ffffffff1660e01b81526004016020604051808303815f875af1158015611817573d5f5f3e3d5ffd5b505050506040513d601f19601f8201168201806040525081019061183b91906128b7565b905061187a600287604051806040016040528060198152602001781153515491d15390d64e8819195c1959c819195d1958dd1959603a1b815250612516565b600191505b816118b05760408051600281525f60208201525f516020612bff5f395f51905f5291015b60405180910390a1611f5b565b6040805160028152602081018390525f516020612bff5f395f51905f5291016118a3565b83861015611c1557600254611a51577f00000000000000000000000000000000000000000000000000000000000000006001600160a01b031663853828b66040518163ffffffff1660e01b81526004016020604051808303815f875af1158015611940573d5f5f3e3d5ffd5b505050506040513d601f19601f8201168201806040525081019061196491906128b7565b90508015611a0c576119967f0000000000000000000000000000000000000000000000000000000000000000826123a6565b60405163b6b55f2560e01b8152600481018290527f00000000000000000000000000000000000000000000000000000000000000006001600160a01b03169063b6b55f25906024015f604051808303815f87803b1580156119f5575f5ffd5b505af1158015611a07573d5f5f3e3d5ffd5b505050505b611a4860018760405180604001604052806018815260200177111151915394d255914e881c9a5cdac819195d1958dd195960421b815250612516565b60019150611bc9565b6002805403611bc9576040516370a0823160e01b81523060048201527f00000000000000000000000000000000000000000000000000000000000000006001600160a01b0316906370a0823190602401602060405180830381865afa158015611abc573d5f5f3e3d5ffd5b505050506040513d601f19601f82011682018060405250810190611ae091906128b7565b90508015611b8857611b127f0000000000000000000000000000000000000000000000000000000000000000826123a6565b60405163b6b55f2560e01b8152600481018290527f00000000000000000000000000000000000000000000000000000000000000006001600160a01b03169063b6b55f25906024015f604051808303815f87803b158015611b71575f5ffd5b505af1158015611b83573d5f5f3e3d5ffd5b505050505b611bc460018760405180604001604052806018815260200177111151915394d255914e881c9a5cdac819195d1958dd195960421b815250612516565b600191505b81611bf15760408051600181525f60208201525f516020612bff5f395f51905f5291016118a3565b6040805160018152602081018390525f516020612bff5f395f51905f5291016118a3565b600160025403611d91577f00000000000000000000000000000000000000000000000000000000000000006001600160a01b031663853828b66040518163ffffffff1660e01b81526004016020604051808303815f875af1158015611c7c573d5f5f3e3d5ffd5b505050506040513d601f19601f82011682018060405250810190611ca091906128b7565b90508015611d4857611cd27f0000000000000000000000000000000000000000000000000000000000000000826123a6565b60405163b6b55f2560e01b8152600481018290527f00000000000000000000000000000000000000000000000000000000000000006001600160a01b03169063b6b55f25906024015f604051808303815f87803b158015611d31575f5ffd5b505af1158015611d43573d5f5f3e3d5ffd5b505050505b611d885f876040518060400160405280601a81526020017f4641524d494e473a206e6f726d616c20636f6e646974696f6e73000000000000815250612516565b60019150611f0d565b6002805403611f0d576040516370a0823160e01b81523060048201527f00000000000000000000000000000000000000000000000000000000000000006001600160a01b0316906370a0823190602401602060405180830381865afa158015611dfc573d5f5f3e3d5ffd5b505050506040513d601f19601f82011682018060405250810190611e2091906128b7565b90508015611ec857611e527f0000000000000000000000000000000000000000000000000000000000000000826123a6565b60405163b6b55f2560e01b8152600481018290527f00000000000000000000000000000000000000000000000000000000000000006001600160a01b03169063b6b55f25906024015f604051808303815f87803b158015611eb1575f5ffd5b505af1158015611ec3573d5f5f3e3d5ffd5b505050505b611f085f876040518060400160405280601a81526020017f4641524d494e473a206e6f726d616c20636f6e646974696f6e73000000000000815250612516565b600191505b81611f3457604080515f80825260208201525f516020612bff5f395f51905f5291016118a3565b604080515f8152602081018390525f516020612bff5f395f51905f52910160405180910390a15b505050505050565b335f908152600460205260409020805482919060ff19166001836002811115611f8e57611f8e6126b4565b0217905550611f9b6115c1565b50565b5f8111611fbd5760405162461bcd60e51b815260040161060f90612858565b6040516323b872dd60e01b8152336004820152306024820152604481018290527f00000000000000000000000000000000000000000000000000000000000000006001600160a01b0316906323b872dd906064016020604051808303815f875af115801561202d573d5f5f3e3d5ffd5b505050506040513d601f19601f8201168201806040525081019061205191906128ce565b61206d5760405162461bcd60e51b815260040161060f906128ed565b335f908152600360205260408120805483929061208b908490612845565b925050819055508060055f8282546120a39190612845565b9091555050600254612153576120d97f0000000000000000000000000000000000000000000000000000000000000000826123a6565b60405163b6b55f2560e01b8152600481018290527f00000000000000000000000000000000000000000000000000000000000000006001600160a01b03169063b6b55f25906024015f604051808303815f87803b158015612138575f5ffd5b505af115801561214a573d5f5f3e3d5ffd5b505050506121fd565b6001600254036121fd576121877f0000000000000000000000000000000000000000000000000000000000000000826123a6565b60405163b6b55f2560e01b8152600481018290527f00000000000000000000000000000000000000000000000000000000000000006001600160a01b03169063b6b55f25906024015f604051808303815f87803b1580156121e6575f5ffd5b505af11580156121f8573d5f5f3e3d5ffd5b505050505b60405181815233907f2da466a7b24304f47e87fa2e1e5a81b9831ce54fec19055ce277ca2f39ba42c490602001610c56565b6001546001600160a01b031633146122995760405162461bcd60e51b815260206004820152602760248201527f53656e74696e656c5661756c743a204f6e6c79206f776e65722063616e2063616044820152666c6c207468697360c81b606482015260840161060f565b6001600160a01b0381166123075760405162461bcd60e51b815260206004820152602f60248201527f53656e74696e656c5661756c743a20496e76616c69642061726269747261676560448201526e206d6f64756c65206164647265737360881b606482015260840161060f565b5f80546001600160a01b0319166001600160a01b0392909216919091179055565b5f546001600160a01b031661234f5760405162461bcd60e51b815260040161060f90612924565b5f805460408051630722968160e31b815290516001600160a01b0390921692633914b4089260048084019382900301818387803b15801561238e575f5ffd5b505af11580156123a0573d5f5f3e3d5ffd5b50505050565b60405163095ea7b360e01b81526001600160a01b0383811660048301525f60248301527f0000000000000000000000000000000000000000000000000000000000000000169063095ea7b3906044016020604051808303815f875af1158015612411573d5f5f3e3d5ffd5b505050506040513d601f19601f8201168201806040525081019061243591906128ce565b5060405163095ea7b360e01b81526001600160a01b038381166004830152602482018390527f0000000000000000000000000000000000000000000000000000000000000000169063095ea7b3906044016020604051808303815f875af11580156124a2573d5f5f3e3d5ffd5b505050506040513d601f19601f820116820180604052508101906124c691906128ce565b6125125760405162461bcd60e51b815260206004820152601e60248201527f53656e74696e656c5661756c743a20417070726f76616c206661696c65640000604482015260640161060f565b5050565b600254830361252457505050565b60028390556040517f7ece719a480bd2bf712a3af1683c7148a9f3b6da26cc8d399ac7f0c11fa9f2449061255f908590859042908690612bd0565b60405180910390a1505050565b5f6020828403121561257c575f5ffd5b81356001600160a01b0381168114612592575f5ffd5b9392505050565b634e487b7160e01b5f52604160045260245ffd5b604051601f8201601f1916810167ffffffffffffffff811182821017156125d6576125d6612599565b604052919050565b5f67ffffffffffffffff8211156125f7576125f7612599565b50601f01601f191660200190565b5f60208284031215612615575f5ffd5b813567ffffffffffffffff81111561262b575f5ffd5b8201601f8101841361263b575f5ffd5b803561264e612649826125de565b6125ad565b818152856020838501011115612662575f5ffd5b816020840160208301375f91810160200191909152949350505050565b5f6020828403121561268f575f5ffd5b5035919050565b5f602082840312156126a6575f5ffd5b813560038110612592575f5ffd5b634e487b7160e01b5f52602160045260245ffd5b60208101600383106126e857634e487b7160e01b5f52602160045260245ffd5b91905290565b5f82601f8301126126fd575f5ffd5b815161270b612649826125de565b81815284602083860101111561271f575f5ffd5b8160208501602083015e5f918101602001919091529392505050565b5f6020828403121561274b575f5ffd5b815167ffffffffffffffff811115612761575f5ffd5b8201601f81018413612771575f5ffd5b805167ffffffffffffffff81111561278b5761278b612599565b8060051b61279b602082016125ad565b918252602081840181019290810190878411156127b6575f5ffd5b6020850192505b838310156127fc57825167ffffffffffffffff8111156127db575f5ffd5b6127ea896020838901016126ee565b835250602092830192909101906127bd565b979650505050505050565b634e487b7160e01b5f52603260045260245ffd5b5f82518060208501845e5f920191825250919050565b634e487b7160e01b5f52601160045260245ffd5b808201808211156105ea576105ea612831565b6020808252602c908201527f53656e74696e656c5661756c743a20416d6f756e74206d75737420626520677260408201526b06561746572207468616e20360a41b606082015260800190565b818103818111156105ea576105ea612831565b5f602082840312156128c7575f5ffd5b5051919050565b5f602082840312156128de575f5ffd5b81518015158114612592575f5ffd5b6020808252601e908201527f53656e74696e656c5661756c743a205472616e73666572206661696c65640000604082015260600190565b60208082526027908201527f53656e74696e656c5661756c743a20417262697472616765206d6f64756c65206040820152661b9bdd081cd95d60ca1b606082015260800190565b5f6020828403121561297b575f5ffd5b815167ffffffffffffffff811115612991575f5ffd5b61299d848285016126ee565b949350505050565b5f81518084528060208401602086015e5f602082860101526020601f19601f83011685010191505092915050565b602081525f61259260208301846129a5565b608081525f6129f760808301866129a5565b8460208401528360408401528281036060840152604681527f4265737420636861696e20707269636520746f6f207269736b7920666f72207560208201527f7365722070726f66696c65202d2073746179696e67206f6e2063757272656e746040820152651031b430b4b760d11b606082015260808101915050949350505050565b5f82612a9357634e487b7160e01b5f52601260045260245ffd5b500490565b604081525f612aaa60408301856129a5565b90508260208301529392505050565b608081525f612acb60808301866129a5565b8460208401528360408401528281036060840152603a81527f537769746368696e6720746f206265737420636861696e2028446566656e736960208201527f7665206d6f64652064756520746f207072696365207269736b29000000000000604082015260608101915050949350505050565b608081525f612b5060808301866129a5565b8460208401528360408401528281036060840152604481527f43726f73732d636861696e20617262697472616765206f70706f7274756e697460208201527f79206465746563746564202d20737769746368696e6720746f206265737420636040820152633430b4b760e11b606082015260808101915050949350505050565b848152836020820152826040820152608060608201525f612bf460808301846129a5565b969550505050505056fec257294ad49c215e1a248c91a86bc2612b4781d9677285cc9c14498f485ef12215b8d05cfbee760aad87fafa0b746b308c07a79f8712d5a331f0a101758d3c08a2646970667358221220e7f1bfdd904a98f30d1e412a4291711d5e8060b2f713a0813fdf021da65521c264736f6c634300081e0033","linkReferences":{}},"methodIdentifiers":{"MODE_DEFENSIVE()":"98d20c11","MODE_EMERGENCY()":"5c6cff88","MODE_FARMING()":"25219137","PRICE_THRESHOLD()":"5ed4c4dd","arb()":"acb5fedf","checkForCrossChainOpportunities()":"3f55d696","currentMode()":"8125092f","deposit(uint256)":"b6b55f25","getBalance(address)":"f8b2cb4f","getMode()":"4b4fd03b","getUnifiedVaultBalance()":"27372982","oracle()":"7dc0d1d0","owner()":"8da5cb5b","rebalance()":"7d7c2a1c","safePool()":"84db6d29","setArbitrageModule(address)":"bdab1601","setRiskProfile(uint8)":"8356e035","simulateRisk(uint256)":"513b55f8","totalDeposits()":"7d882097","triggerBestChainSwitch()":"d5eed5d8","usdc()":"3e413bee","userDeposits(address)":"0ba36dcd","userRiskProfile(address)":"9f94c67a","vaultBalance(string)":"1e1e3e0f","withdraw(uint256)":"2e1a7d4d","yieldPool()":"8f188dd4"},"id":33}