{"abi":[{"type":"constructor","inputs":[{"name":"_usdc","type":"address","internalType":"address"}],"stateMutability":"nonpayable"},{"type":"function","name":"SECURITY_THRESHOLD","inputs":[],"outputs":[{"name":"","type":"uint256","internalType":"uint256"}],"stateMutability":"view"},{"type":"function","name":"applyLoss","inputs":[{"name":"lossAmount","type":"uint256","internalType":"uint256"}],"outputs":[],"stateMutability":"nonpayable"},{"type":"function","name":"deposit","inputs":[{"name":"amount","type":"uint256","internalType":"uint256"},{"name":"t","type":"uint8","internalType":"enum TrancheVault.Tranche"}],"outputs":[],"stateMutability":"nonpayable"},{"type":"function","name":"getSharePrice","inputs":[{"name":"t","type":"uint8","internalType":"enum TrancheVault.Tranche"}],"outputs":[{"name":"","type":"uint256","internalType":"uint256"}],"stateMutability":"view"},{"type":"function","name":"getTrancheValues","inputs":[],"outputs":[{"name":"seniorValue","type":"uint256","internalType":"uint256"},{"name":"mezzValue","type":"uint256","internalType":"uint256"},{"name":"juniorValue","type":"uint256","internalType":"uint256"}],"stateMutability":"view"},{"type":"function","name":"getUserShares","inputs":[{"name":"user","type":"address","internalType":"address"},{"name":"t","type":"uint8","internalType":"enum TrancheVault.Tranche"}],"outputs":[{"name":"","type":"uint256","internalType":"uint256"}],"stateMutability":"view"},{"type":"function","name":"getUserValue","inputs":[{"name":"user","type":"address","internalType":"address"},{"name":"t","type":"uint8","internalType":"enum TrancheVault.Tranche"}],"outputs":[{"name":"","type":"uint256","internalType":"uint256"}],"stateMutability":"view"},{"type":"function","name":"junior","inputs":[],"outputs":[{"name":"totalShares","type":"uint256","internalType":"uint256"},{"name":"virtualValue","type":"uint256","internalType":"uint256"}],"stateMutability":"view"},{"type":"function","name":"juniorPositions","inputs":[{"name":"","type":"address","internalType":"address"}],"outputs":[{"name":"shares","type":"uint256","internalType":"uint256"}],"stateMutability":"view"},{"type":"function","name":"mezz","inputs":[],"outputs":[{"name":"totalShares","type":"uint256","internalType":"uint256"},{"name":"virtualValue","type":"uint256","internalType":"uint256"}],"stateMutability":"view"},{"type":"function","name":"mezzPositions","inputs":[{"name":"","type":"address","internalType":"address"}],"outputs":[{"name":"shares","type":"uint256","internalType":"uint256"}],"stateMutability":"view"},{"type":"function","name":"owner","inputs":[],"outputs":[{"name":"","type":"address","internalType":"address"}],"stateMutability":"view"},{"type":"function","name":"senior","inputs":[],"outputs":[{"name":"totalShares","type":"uint256","internalType":"uint256"},{"name":"virtualValue","type":"uint256","internalType":"uint256"}],"stateMutability":"view"},{"type":"function","name":"seniorPositions","inputs":[{"name":"","type":"address","internalType":"address"}],"outputs":[{"name":"shares","type":"uint256","internalType":"uint256"}],"stateMutability":"view"},{"type":"function","name":"totalVaultValue","inputs":[],"outputs":[{"name":"","type":"uint256","internalType":"uint256"}],"stateMutability":"view"},{"type":"function","name":"updateEpoch","inputs":[{"name":"yieldScore","type":"uint256","internalType":"uint256"},{"name":"securityScore","type":"uint256","internalType":"uint256"},{"name":"liquidityScore","type":"uint256","internalType":"uint256"}],"outputs":[],"stateMutability":"nonpayable"},{"type":"function","name":"usdc","inputs":[],"outputs":[{"name":"","type":"address","internalType":"contract IERC20"}],"stateMutability":"view"},{"type":"function","name":"withdraw","inputs":[{"name":"shares","type":"uint256","internalType":"uint256"},{"name":"t","type":"uint8","internalType":"enum TrancheVault.Tranche"}],"outputs":[],"stateMutability":"nonpayable"},{"type":"event","name":"Deposit","inputs":[{"name":"user","type":"address","indexed":true,"internalType":"address"},{"name":"amount","type":"uint256","indexed":false,"internalType":"uint256"},{"name":"tranche","type":"uint8","indexed":false,"internalType":"enum TrancheVault.Tranche"},{"name":"shares","type":"uint256","indexed":false,"internalType":"uint256"}],"anonymous":false},{"type":"event","name":"EpochUpdated","inputs":[{"name":"yieldScore","type":"uint256","indexed":false,"internalType":"uint256"},{"name":"securityScore","type":"uint256","indexed":false,"internalType":"uint256"},{"name":"liquidityScore","type":"uint256","indexed":false,"internalType":"uint256"},{"name":"delta","type":"int256","indexed":false,"internalType":"int256"},{"name":"seniorDelta","type":"int256","indexed":false,"internalType":"int256"},{"name":"mezzDelta","type":"int256","indexed":false,"internalType":"int256"},{"name":"juniorDelta","type":"int256","indexed":false,"internalType":"int256"}],"anonymous":false},{"type":"event","name":"LossApplied","inputs":[{"name":"amount","type":"uint256","indexed":false,"internalType":"uint256"},{"name":"juniorLoss","type":"uint256","indexed":false,"internalType":"uint256"},{"name":"mezzLoss","type":"uint256","indexed":false,"internalType":"uint256"},{"name":"seniorLoss","type":"uint256","indexed":false,"internalType":"uint256"}],"anonymous":false},{"type":"event","name":"Withdraw","inputs":[{"name":"user","type":"address","indexed":true,"internalType":"address"},{"name":"amount","type":"uint256","indexed":false,"internalType":"uint256"},{"name":"tranche","type":"uint8","indexed":false,"internalType":"enum TrancheVault.Tranche"},{"name":"shares","type":"uint256","indexed":false,"internalType":"uint256"}],"anonymous":false}],"bytecode":{"object":"0x60a060405234801561000f575f5ffd5b506040516115c43803806115c483398101604081905261002e916100b5565b6001600160a01b0381166100935760405162461bcd60e51b815260206004820152602260248201527f5472616e6368655661756c743a20496e76616c69642055534443206164647265604482015261737360f01b606482015260840160405180910390fd5b6001600160a01b03166080525f80546001600160a01b031916331790556100e2565b5f602082840312156100c5575f5ffd5b81516001600160a01b03811681146100db575f5ffd5b9392505050565b6080516114b561010f5f395f8181610161015281816108b201528181610c620152610d9701526114b55ff3fe608060405234801561000f575f5ffd5b5060043610610111575f3560e01c80636c0cf4611161009e578063c235253f1161006e578063c235253f1461026c578063cc78c1951461027f578063eab77ac9146102a2578063f15086e5146102b0578063fafa54c9146102be575f5ffd5b80636c0cf461146102205780638da5cb5b1461023f578063903d429614610251578063afbc74b914610264575f5ffd5b806347de9d1f116100e457806347de9d1f146101ba57806354a0d75d146101de57806356ee6e82146101e757806363204706146101fa578063654cfdff1461020d575f5ffd5b806335ce1a42146101155780633a586112146101475780633e413bee1461015c5780634288fe841461019b575b5f5ffd5b610134610123366004611147565b60026020525f908152604090205481565b6040519081526020015b60405180910390f35b61015a610155366004611167565b6102d1565b005b6101837f000000000000000000000000000000000000000000000000000000000000000081565b6040516001600160a01b03909116815260200161013e565b6101346101a9366004611147565b60036020525f908152604090205481565b6005546007546009546040805193845260208401929092529082015260600161013e565b610134610bb881565b6101346101f536600461119e565b61050f565b61015a6102083660046111cf565b6105f4565b61015a61021b3660046111e6565b6107c4565b61013461022e366004611147565b60016020525f908152604090205481565b5f54610183906001600160a01b031681565b61015a61025f3660046111e6565b610a67565b610134610e92565b61013461027a36600461119e565b610eb6565b60065460075461028d919082565b6040805192835260208301919091520161013e565b60085460095461028d919082565b60045460055461028d919082565b6101346102cc366004611207565b610f45565b5f546001600160a01b031633146103035760405162461bcd60e51b81526004016102fa90611220565b60405180910390fd5b612710831115801561031757506127108211155b801561032557506127108111155b61037f5760405162461bcd60e51b815260206004820152602560248201527f5472616e6368655661756c743a2053636f726573206d757374206265203c3d20604482015264031303030360dc1b60648201526084016102fa565b5f606461038d83601461127a565b61039885602861127a565b6103a387602861127a565b6103ad9190611291565b6103b79190611291565b6103c191906112b8565b90505f6103d0611388836112cb565b90505f6103e86103e18360326112ea565b6103eb9190611319565b90505f6103e86103fc8460646112ea565b6104069190611319565b90505f6103e86104178560c86112ea565b6104219190611319565b905061043260046001015484611019565b6005556007546104429083611019565b6007556009546104529082611019565b6009556040805189815260208101899052908101879052606081018590526080810184905260a0810183905260c081018290527f915b3ea0e0e76c5f7197328ebd8fd0c527a2c847b9d8a88ffdbcfcac516025e79060e00160405180910390a1610bb8871015610505575f6104c5610e92565b90508015610503575f610bb8826104dc8b83611345565b6104e6919061127a565b6104f091906112b8565b9050801561050157610501816105f4565b505b505b5050505050505050565b5f818181600281111561052457610524611358565b14806105415750600181600281111561053f5761053f611358565b145b8061055d5750600281600281111561055b5761055b611358565b145b6105795760405162461bcd60e51b81526004016102fa9061136c565b5f6105848585611059565b60408051602081019091529054815290505f61059f856110e2565b604080518082019091528154808252600190920154602082015291505f036105cb575f935050506105ed565b8051602082015183516105de919061127a565b6105e891906112b8565b935050505b5092915050565b5f546001600160a01b0316331461061d5760405162461bcd60e51b81526004016102fa90611220565b5f81116106855760405162461bcd60e51b815260206004820152603060248201527f5472616e6368655661756c743a204c6f737320616d6f756e74206d757374206260448201526f0652067726561746572207468616e20360841b60648201526084016102fa565b6009545f9081908190849081116106bb578093508060086001015f8282546106ad9190611345565b909155505f91506106d19050565b60095493506106ca8482611345565b5f60095590505b5f811180156106e1575060075415155b1561072a576007548111610714578092508060066001015f8282546107069190611345565b909155505f915061072a9050565b60075492506107238382611345565b5f60075590505b5f8111801561073a575060055415155b1561077557600554811161076a578091508060046001015f82825461075f9190611345565b909155506107759050565b600580545f90915591505b6040805186815260208101869052908101849052606081018390527f3f6eab6685a97d758da952997540d11aed50bfeb639f046e5298d9374394ea1a9060800160405180910390a15050505050565b805f8160028111156107d8576107d8611358565b14806107f5575060018160028111156107f3576107f3611358565b145b806108115750600281600281111561080f5761080f611358565b145b61082d5760405162461bcd60e51b81526004016102fa9061136c565b5f83116108905760405162461bcd60e51b815260206004820152602b60248201527f5472616e6368655661756c743a20416d6f756e74206d7573742062652067726560448201526a061746572207468616e20360ac1b60648201526084016102fa565b6040516323b872dd60e01b8152336004820152306024820152604481018490527f00000000000000000000000000000000000000000000000000000000000000006001600160a01b0316906323b872dd906064016020604051808303815f875af1158015610900573d5f5f3e3d5ffd5b505050506040513d601f19601f8201168201806040525081019061092491906113a3565b6109705760405162461bcd60e51b815260206004820152601d60248201527f5472616e6368655661756c743a205472616e73666572206661696c656400000060448201526064016102fa565b5f61097a836110e2565b90505f6109873385611059565b90505f825f01545f0361099b5750846109b9565b600183015483546109ac908861127a565b6109b691906112b8565b90505b5f81116109d85760405162461bcd60e51b81526004016102fa906113c2565b80825f015f8282546109ea9190611291565b90915550508254819084905f90610a02908490611291565b9250508190555085836001015f828254610a1c9190611291565b909155505060405133907f999cbaf5148925f92ba8d941276e0a13cadad3823058b47817fb1a108753105790610a579089908990869061140d565b60405180910390a2505050505050565b805f816002811115610a7b57610a7b611358565b1480610a9857506001816002811115610a9657610a96611358565b145b80610ab457506002816002811115610ab257610ab2611358565b145b610ad05760405162461bcd60e51b81526004016102fa9061136c565b5f8311610aef5760405162461bcd60e51b81526004016102fa906113c2565b5f610af9836110e2565b90505f610b063385611059565b905084815f01541015610b655760405162461bcd60e51b815260206004820152602160248201527f5472616e6368655661756c743a20496e73756666696369656e742073686172656044820152607360f81b60648201526084016102fa565b8154610bbe5760405162461bcd60e51b815260206004820152602260248201527f5472616e6368655661756c743a204e6f2073686172657320696e207472616e63604482015261686560f01b60648201526084016102fa565b815460018301545f9190610bd2908861127a565b610bdc91906112b8565b90505f8111610c4b5760405162461bcd60e51b815260206004820152603560248201527f5472616e6368655661756c743a205769746864726177616c2076616c7565206d60448201527407573742062652067726561746572207468616e203605c1b60648201526084016102fa565b6040516370a0823160e01b815230600482015281907f00000000000000000000000000000000000000000000000000000000000000006001600160a01b0316906370a0823190602401602060405180830381865afa158015610caf573d5f5f3e3d5ffd5b505050506040513d601f19601f82011682018060405250810190610cd39190611441565b1015610d325760405162461bcd60e51b815260206004820152602860248201527f5472616e6368655661756c743a20496e73756666696369656e74207661756c746044820152672062616c616e636560c01b60648201526084016102fa565b85825f015f828254610d449190611345565b90915550508254869084905f90610d5c908490611345565b9250508190555080836001015f828254610d769190611345565b909155505060405163a9059cbb60e01b8152336004820152602481018290527f00000000000000000000000000000000000000000000000000000000000000006001600160a01b03169063a9059cbb906044016020604051808303815f875af1158015610de5573d5f5f3e3d5ffd5b505050506040513d601f19601f82011682018060405250810190610e0991906113a3565b610e555760405162461bcd60e51b815260206004820152601d60248201527f5472616e6368655661756c743a205472616e73666572206661696c656400000060448201526064016102fa565b336001600160a01b03167fc6c74a68f89b63353b582f75a2009daefef14ef389fbf7e30edb6141f414f028828789604051610a579392919061140d565b6009546007546005545f9291610ea791611291565b610eb19190611291565b905090565b5f8181816002811115610ecb57610ecb611358565b1480610ee857506001816002811115610ee657610ee6611358565b145b80610f0457506002816002811115610f0257610f02611358565b145b610f205760405162461bcd60e51b81526004016102fa9061136c565b5f610f2b8585611059565b604080516020810190915290549081905295945050505050565b5f8181816002811115610f5a57610f5a611358565b1480610f7757506001816002811115610f7557610f75611358565b145b80610f9357506002816002811115610f9157610f91611358565b145b610faf5760405162461bcd60e51b81526004016102fa9061136c565b5f610fb9846110e2565b604080518082019091528154808252600190920154602082015291505f03610fec57670de0b6b3a7640000925050611013565b8051602082015161100590670de0b6b3a764000061127a565b61100f91906112b8565b9250505b50919050565b5f5f82126110325761102b8284611291565b9050611053565b5f61103d8385611458565b90505f811215611050575f915050611053565b90505b92915050565b5f8082600281111561106d5761106d611358565b0361108f57506001600160a01b0382165f908152600160205260409020611053565b60018260028111156110a3576110a3611358565b036110c557506001600160a01b0382165f908152600260205260409020611053565b506001600160a01b0382165f908152600360205260409020611053565b5f808260028111156110f6576110f6611358565b0361110357506004919050565b600182600281111561111757611117611358565b0361112457506006919050565b506008919050565b919050565b80356001600160a01b038116811461112c575f5ffd5b5f60208284031215611157575f5ffd5b61116082611131565b9392505050565b5f5f5f60608486031215611179575f5ffd5b505081359360208301359350604090920135919050565b80356003811061112c575f5ffd5b5f5f604083850312156111af575f5ffd5b6111b883611131565b91506111c660208401611190565b90509250929050565b5f602082840312156111df575f5ffd5b5035919050565b5f5f604083850312156111f7575f5ffd5b823591506111c660208401611190565b5f60208284031215611217575f5ffd5b61116082611190565b60208082526026908201527f5472616e6368655661756c743a204f6e6c79206f776e65722063616e2063616c6040820152656c207468697360d01b606082015260800190565b634e487b7160e01b5f52601160045260245ffd5b808202811582820484141761105357611053611266565b8082018082111561105357611053611266565b634e487b7160e01b5f52601260045260245ffd5b5f826112c6576112c66112a4565b500490565b8181035f8312801583831316838312821617156105ed576105ed611266565b8082025f8212600160ff1b8414161561130557611305611266565b818105831482151761105357611053611266565b5f82611327576113276112a4565b600160ff1b82145f198414161561134057611340611266565b500590565b8181038181111561105357611053611266565b634e487b7160e01b5f52602160045260245ffd5b6020808252601d908201527f5472616e6368655661756c743a20496e76616c6964207472616e636865000000604082015260600190565b5f602082840312156113b3575f5ffd5b81518015158114611160575f5ffd5b6020808252602b908201527f5472616e6368655661756c743a20536861726573206d7573742062652067726560408201526a061746572207468616e20360ac1b606082015260800190565b838152606081016003841061143057634e487b7160e01b5f52602160045260245ffd5b602082019390935260400152919050565b5f60208284031215611451575f5ffd5b5051919050565b8082018281125f83128015821682158216171561147757611477611266565b50509291505056fea26469706673582212200f4369cc6de067ea7deb5bae597308a23528a914607c11651b2a1ca8f832a0d564736f6c634300081e0033","linkReferences":{}},"methodIdentifiers":{"SECURITY_THRESHOLD()":"54a0d75d","applyLoss(uint256)":"63204706","deposit(uint256,uint8)":"654cfdff","getSharePrice(uint8)":"fafa54c9","getTrancheValues()":"47de9d1f","getUserShares(address,uint8)":"c235253f","getUserValue(address,uint8)":"56ee6e82","junior()":"eab77ac9","juniorPositions(address)":"4288fe84","mezz()":"cc78c195","mezzPositions(address)":"35ce1a42","owner()":"8da5cb5b","senior()":"f15086e5","seniorPositions(address)":"6c0cf461","totalVaultValue()":"afbc74b9","updateEpoch(uint256,uint256,uint256)":"3a586112","usdc()":"3e413bee","withdraw(uint256,uint8)":"903d4296"},"id":34}