{"abi":[{"type":"constructor","inputs":[],"stateMutability":"nonpayable"},{"type":"function","name":"getPrice","inputs":[],"outputs":[{"name":"","type":"uint256","internalType":"uint256"}],"stateMutability":"view"},{"type":"function","name":"setPrice","inputs":[{"name":"_price","type":"uint256","internalType":"uint256"}],"outputs":[],"stateMutability":"nonpayable"},{"type":"event","name":"PriceUpdated","inputs":[{"name":"newPrice","type":"uint256","indexed":false,"internalType":"uint256"}],"anonymous":false}],"bytecode":{"object":"0x6080604052348015600e575f5ffd5b50670de0b6b3a76400005f5560df806100265f395ff3fe6080604052348015600e575f5ffd5b50600436106030575f3560e01c806391b7f5ed14603457806398d5fdca146045575b5f5ffd5b6043603f3660046093565b6059565b005b5f5460405190815260200160405180910390f35b5f8190556040518181527f66cbca4f3c64fecf1dcb9ce094abcf7f68c3450a1d4e3a8e917dd621edb4ebe09060200160405180910390a150565b5f6020828403121560a2575f5ffd5b503591905056fea2646970667358221220b1a37e5306dc4e370599772ca108831b9eded4978bb422b0a2a5d05326fd005a64736f6c634300081e0033","linkReferences":{}},"methodIdentifiers":{"getPrice()":"98d5fdca","setPrice(uint256)":"91b7f5ed"},"id":23}