{"abi":[{"type":"constructor","inputs":[{"name":"_usdc","type":"address","internalType":"address"}],"stateMutability":"nonpayable"},{"type":"function","name":"balances","inputs":[{"name":"","type":"address","internalType":"address"}],"outputs":[{"name":"","type":"uint256","internalType":"uint256"}],"stateMutability":"view"},{"type":"function","name":"deposit","inputs":[{"name":"amount","type":"uint256","internalType":"uint256"}],"outputs":[],"stateMutability":"nonpayable"},{"type":"function","name":"getTotalBalance","inputs":[],"outputs":[{"name":"","type":"uint256","internalType":"uint256"}],"stateMutability":"view"},{"type":"function","name":"totalDeposits","inputs":[],"outputs":[{"name":"","type":"uint256","internalType":"uint256"}],"stateMutability":"view"},{"type":"function","name":"usdc","inputs":[],"outputs":[{"name":"","type":"address","internalType":"contract IERC20"}],"stateMutability":"view"},{"type":"function","name":"withdrawAll","inputs":[],"outputs":[{"name":"","type":"uint256","internalType":"uint256"}],"stateMutability":"nonpayable"},{"type":"event","name":"Deposited","inputs":[{"name":"user","type":"address","indexed":true,"internalType":"address"},{"name":"amount","type":"uint256","indexed":false,"internalType":"uint256"}],"anonymous":false},{"type":"event","name":"Withdrawn","inputs":[{"name":"user","type":"address","indexed":true,"internalType":"address"},{"name":"amount","type":"uint256","indexed":false,"internalType":"uint256"}],"anonymous":false}],"bytecode":{"object":"0x60a060405234801561000f575f5ffd5b506040516105c13803806105c183398101604081905261002e91610099565b6001600160a01b0381166100885760405162461bcd60e51b815260206004820152601e60248201527f53616665506f6f6c3a20496e76616c6964205553444320616464726573730000604482015260640160405180910390fd5b6001600160a01b03166080526100c6565b5f602082840312156100a9575f5ffd5b81516001600160a01b03811681146100bf575f5ffd5b9392505050565b6080516104d66100eb5f395f8181609f0152818161017601526102eb01526104d65ff3fe608060405234801561000f575f5ffd5b5060043610610060575f3560e01c806312b583491461006457806327e235e31461007b5780633e413bee1461009a5780637d882097146100d9578063853828b6146100e2578063b6b55f25146100ea575b5f5ffd5b6001545b6040519081526020015b60405180910390f35b610068610089366004610418565b5f6020819052908152604090205481565b6100c17f000000000000000000000000000000000000000000000000000000000000000081565b6040516001600160a01b039091168152602001610072565b61006860015481565b6100686100ff565b6100fd6100f8366004610445565b61026a565b005b6001545f90806101565760405162461bcd60e51b815260206004820152601e60248201527f53616665506f6f6c3a204e6f2066756e647320746f207769746864726177000060448201526064015b60405180910390fd5b5f60015560405163a9059cbb60e01b8152336004820152602481018290527f00000000000000000000000000000000000000000000000000000000000000006001600160a01b03169063a9059cbb906044016020604051808303815f875af11580156101c4573d5f5f3e3d5ffd5b505050506040513d601f19601f820116820180604052508101906101e8919061045c565b6102305760405162461bcd60e51b815260206004820152601960248201527814d85999541bdbdb0e88151c985b9cd9995c8819985a5b1959603a1b604482015260640161014d565b60405181815233907f7084f5476618d8e60b11ef0d7d3f06914655adb8793e28ff7f018d4c76d505d59060200160405180910390a2919050565b5f81116102c95760405162461bcd60e51b815260206004820152602760248201527f53616665506f6f6c3a20416d6f756e74206d75737420626520677265617465726044820152660207468616e20360cc1b606482015260840161014d565b6040516323b872dd60e01b8152336004820152306024820152604481018290527f00000000000000000000000000000000000000000000000000000000000000006001600160a01b0316906323b872dd906064016020604051808303815f875af1158015610339573d5f5f3e3d5ffd5b505050506040513d601f19601f8201168201806040525081019061035d919061045c565b6103a55760405162461bcd60e51b815260206004820152601960248201527814d85999541bdbdb0e88151c985b9cd9995c8819985a5b1959603a1b604482015260640161014d565b335f90815260208190526040812080548392906103c390849061047b565b925050819055508060015f8282546103db919061047b565b909155505060405181815233907f2da466a7b24304f47e87fa2e1e5a81b9831ce54fec19055ce277ca2f39ba42c49060200160405180910390a250565b5f60208284031215610428575f5ffd5b81356001600160a01b038116811461043e575f5ffd5b9392505050565b5f60208284031215610455575f5ffd5b5035919050565b5f6020828403121561046c575f5ffd5b8151801515811461043e575f5ffd5b8082018082111561049a57634e487b7160e01b5f52601160045260245ffd5b9291505056fea2646970667358221220f40a68b201d3dbc73998e2a52ca587d9a63889272a838c4c9ce4043752bf52df64736f6c634300081e0033","linkReferences":{}},"methodIdentifiers":{"balances(address)":"27e235e3","deposit(uint256)":"b6b55f25","getTotalBalance()":"12b58349","totalDeposits()":"7d882097","usdc()":"3e413bee","withdrawAll()":"853828b6"},"id":24}