{
  "abi": [
    {
      "type": "constructor",
      "inputs": [
        {
          "name": "_usdc",
          "type": "address",
          "internalType": "address"
        },
        {
          "name": "_oracle",
          "type": "address",
          "internalType": "address"
        },
        {
          "name": "_safePool",
          "type": "address",
          "internalType": "address"
        },
        {
          "name": "_yieldPool",
          "type": "address",
          "internalType": "address"
        }
      ],
      "stateMutability": "nonpayable"
    },
    {
      "type": "function",
      "name": "MODE_DEFENSIVE",
      "inputs": [],
      "outputs": [
        {
          "name": "",
          "type": "uint256",
          "internalType": "uint256"
        }
      ],
      "stateMutability": "view"
    },
    {
      "type": "function",
      "name": "MODE_EMERGENCY",
      "inputs": [],
      "outputs": [
        {
          "name": "",
          "type": "uint256",
          "internalType": "uint256"
        }
      ],
      "stateMutability": "view"
    },
    {
      "type": "function",
      "name": "MODE_FARMING",
      "inputs": [],
      "outputs": [
        {
          "name": "",
          "type": "uint256",
          "internalType": "uint256"
        }
      ],
      "stateMutability": "view"
    },
    {
      "type": "function",
      "name": "PRICE_THRESHOLD",
      "inputs": [],
      "outputs": [
        {
          "name": "",
          "type": "uint256",
          "internalType": "uint256"
        }
      ],
      "stateMutability": "view"
    },
    {
      "type": "function",
      "name": "currentMode",
      "inputs": [],
      "outputs": [
        {
          "name": "",
          "type": "uint256",
          "internalType": "uint256"
        }
      ],
      "stateMutability": "view"
    },
    {
      "type": "function",
      "name": "deposit",
      "inputs": [
        {
          "name": "amount",
          "type": "uint256",
          "internalType": "uint256"
        }
      ],
      "outputs": [],
      "stateMutability": "nonpayable"
    },
    {
      "type": "function",
      "name": "getBalance",
      "inputs": [
        {
          "name": "user",
          "type": "address",
          "internalType": "address"
        }
      ],
      "outputs": [
        {
          "name": "",
          "type": "uint256",
          "internalType": "uint256"
        }
      ],
      "stateMutability": "view"
    },
    {
      "type": "function",
      "name": "getMode",
      "inputs": [],
      "outputs": [
        {
          "name": "",
          "type": "uint256",
          "internalType": "uint256"
        }
      ],
      "stateMutability": "view"
    },
    {
      "type": "function",
      "name": "oracle",
      "inputs": [],
      "outputs": [
        {
          "name": "",
          "type": "address",
          "internalType": "contract OracleFeed"
        }
      ],
      "stateMutability": "view"
    },
    {
      "type": "function",
      "name": "rebalance",
      "inputs": [],
      "outputs": [],
      "stateMutability": "nonpayable"
    },
    {
      "type": "function",
      "name": "setRiskProfile",
      "inputs": [
        {
          "name": "profile",
          "type": "uint8",
          "internalType": "uint8"
        }
      ],
      "outputs": [],
      "stateMutability": "nonpayable"
    },
    {
      "type": "function",
      "name": "safePool",
      "inputs": [],
      "outputs": [
        {
          "name": "",
          "type": "address",
          "internalType": "contract SafePool"
        }
      ],
      "stateMutability": "view"
    },
    {
      "type": "function",
      "name": "simulateRisk",
      "inputs": [
        {
          "name": "newPrice",
          "type": "uint256",
          "internalType": "uint256"
        }
      ],
      "outputs": [
        {
          "name": "",
          "type": "bool",
          "internalType": "bool"
        }
      ],
      "stateMutability": "view"
    },
    {
      "type": "function",
      "name": "totalDeposits",
      "inputs": [],
      "outputs": [
        {
          "name": "",
          "type": "uint256",
          "internalType": "uint256"
        }
      ],
      "stateMutability": "view"
    },
    {
      "type": "function",
      "name": "usdc",
      "inputs": [],
      "outputs": [
        {
          "name": "",
          "type": "address",
          "internalType": "contract IERC20"
        }
      ],
      "stateMutability": "view"
    },
    {
      "type": "function",
      "name": "userDeposits",
      "inputs": [
        {
          "name": "",
          "type": "address",
          "internalType": "address"
        }
      ],
      "outputs": [
        {
          "name": "",
          "type": "uint256",
          "internalType": "uint256"
        }
      ],
      "stateMutability": "view"
    },
    {
      "type": "function",
      "name": "userRiskProfile",
      "inputs": [
        {
          "name": "",
          "type": "address",
          "internalType": "address"
        }
      ],
      "outputs": [
        {
          "name": "",
          "type": "uint8",
          "internalType": "uint8"
        }
      ],
      "stateMutability": "view"
    },
    {
      "type": "function",
      "name": "withdraw",
      "inputs": [
        {
          "name": "amount",
          "type": "uint256",
          "internalType": "uint256"
        }
      ],
      "outputs": [],
      "stateMutability": "nonpayable"
    },
    {
      "type": "function",
      "name": "yieldPool",
      "inputs": [],
      "outputs": [
        {
          "name": "",
          "type": "address",
          "internalType": "contract YieldPool"
        }
      ],
      "stateMutability": "view"
    },
    {
      "type": "event",
      "name": "Deposited",
      "inputs": [
        {
          "name": "user",
          "type": "address",
          "indexed": true,
          "internalType": "address"
        },
        {
          "name": "amount",
          "type": "uint256",
          "indexed": false,
          "internalType": "uint256"
        }
      ],
      "anonymous": false
    },
    {
      "type": "event",
      "name": "ModeChanged",
      "inputs": [
        {
          "name": "newMode",
          "type": "uint256",
          "indexed": false,
          "internalType": "uint256"
        },
        {
          "name": "price",
          "type": "uint256",
          "indexed": false,
          "internalType": "uint256"
        },
        {
          "name": "timestamp",
          "type": "uint256",
          "indexed": false,
          "internalType": "uint256"
        },
        {
          "name": "reason",
          "type": "string",
          "indexed": false,
          "internalType": "string"
        }
      ],
      "anonymous": false
    },
    {
      "type": "event",
      "name": "Rebalanced",
      "inputs": [
        {
          "name": "mode",
          "type": "uint256",
          "indexed": false,
          "internalType": "uint256"
        },
        {
          "name": "amount",
          "type": "uint256",
          "indexed": false,
          "internalType": "uint256"
        }
      ],
      "anonymous": false
    },
    {
      "type": "event",
      "name": "Withdrawn",
      "inputs": [
        {
          "name": "user",
          "type": "address",
          "indexed": true,
          "internalType": "address"
        },
        {
          "name": "amount",
          "type": "uint256",
          "indexed": false,
          "internalType": "uint256"
        }
      ],
      "anonymous": false
    }
  ],
  "bytecode": {
    "object": "0x610100604052348015610010575f5ffd5b5060405161186838038061186883398101604081905261002f91610207565b6001600160a01b0384166100965760405162461bcd60e51b815260206004820152602360248201527f53656e74696e656c5661756c743a20496e76616c69642055534443206164647260448201526265737360e81b60648201526084015b60405180910390fd5b6001600160a01b0383166100fa5760405162461bcd60e51b815260206004820152602560248201527f53656e74696e656c5661756c743a20496e76616c6964204f7261636c65206164604482015264647265737360d81b606482015260840161008d565b6001600160a01b0382166101605760405162461bcd60e51b815260206004820152602760248201527f53656e74696e656c5661756c743a20496e76616c69642053616665506f6f6c206044820152666164647265737360c81b606482015260840161008d565b6001600160a01b0381166101c75760405162461bcd60e51b815260206004820152602860248201527f53656e74696e656c5661756c743a20496e76616c6964205969656c64506f6f6c604482015267206164647265737360c01b606482015260840161008d565b6001600160a01b0393841660805291831660a052821660c0521660e0525f8055610258565b80516001600160a01b0381168114610202575f5ffd5b919050565b5f5f5f5f6080858703121561021a575f5ffd5b610223856101ec565b9350610231602086016101ec565b925061023f604086016101ec565b915061024d606086016101ec565b905092959194509250565b60805160a05160c05160e0516115206103485f395f818161024c01528181610387015281816104990152818161056901528181610b0901528181610dfc01528181610ec7015281816110ca015261119501525f818161022501528181610687015281816107980152818161086801528181610ba701528181610c7201528181610d5e0152818161121901526112e401525f81816101f60152610a6d01525f818161015d015281816104cb015281816105e7015281816107ca015281816108b6015281816109a301528181610bd601528181610e2b01528181610fe4015281816110f9015261124801526115205ff3fe608060405234801561000f575f5ffd5b5060043610610106575f3560e01c80637d7c2a1c1161009e57806384db6d291161006e57806384db6d29146102205780638f188dd41461024757806398d20c111461026e578063b6b55f2514610276578063f8b2cb4f14610289575f5ffd5b80637d7c2a1c146101e05780637d882097146101e85780637dc0d1d0146101f15780638125092f14610218575f5ffd5b80634b4fd03b116100d95780634b4fd03b14610197578063513b55f81461019e5780635c6cff88146101c95780635ed4c4dd146101d1575f5ffd5b80630ba36dcd1461010a578063252191371461013c5780632e1a7d4d146101435780633e413bee14610158575b5f5ffd5b610129610118366004611376565b60016020525f908152604090205481565b6040519081526020015b60405180910390f35b6101295f81565b6101566101513660046113a3565b6102b1565b005b61017f7f000000000000000000000000000000000000000000000000000000000000000081565b6040516001600160a01b039091168152602001610133565b5f54610129565b6101b96101ac3660046113a3565b670ddd2935029d80001190565b6040519015158152602001610133565b610129600281565b610129670ddd2935029d800081565b610156610a6a565b61012960025481565b61017f7f000000000000000000000000000000000000000000000000000000000000000081565b6101295f5481565b61017f7f000000000000000000000000000000000000000000000000000000000000000081565b61017f7f000000000000000000000000000000000000000000000000000000000000000081565b610129600181565b6101566102843660046113a3565b610fa3565b610129610297366004611376565b6001600160a01b03165f9081526001602052604090205490565b5f81116102d95760405162461bcd60e51b81526004016102d0906113ba565b60405180910390fd5b335f908152600160205260409020548111156103435760405162461bcd60e51b815260206004820152602360248201527f53656e74696e656c5661756c743a20496e73756666696369656e742062616c616044820152626e636560e81b60648201526084016102d0565b335f908152600160205260408120805483929061036190849061141a565b925050819055508060025f828254610379919061141a565b90915550505f5461067b575f7f00000000000000000000000000000000000000000000000000000000000000006001600160a01b031663853828b66040518163ffffffff1660e01b81526004016020604051808303815f875af11580156103e2573d5f5f3e3d5ffd5b505050506040513d601f19601f820116820180604052508101906104069190611433565b90508181101561046f5760405162461bcd60e51b815260206004820152602e60248201527f53656e74696e656c5661756c743a20496e73756666696369656e742066756e6460448201526d1cc81a5b88165a595b19141bdbdb60921b60648201526084016102d0565b818111156105cb575f610482838361141a565b60405163095ea7b360e01b81526001600160a01b037f000000000000000000000000000000000000000000000000000000000000000081166004830152602482018390529192507f00000000000000000000000000000000000000000000000000000000000000009091169063095ea7b3906044016020604051808303815f875af1158015610513573d5f5f3e3d5ffd5b505050506040513d601f19601f82011682018060405250810190610537919061144a565b6105535760405162461bcd60e51b81526004016102d090611469565b60405163b6b55f2560e01b8152600481018290527f00000000000000000000000000000000000000000000000000000000000000006001600160a01b03169063b6b55f25906024015b5f604051808303815f87803b1580156105b3575f5ffd5b505af11580156105c5573d5f5f3e3d5ffd5b50505050505b60405163a9059cbb60e01b8152336004820152602481018390527f00000000000000000000000000000000000000000000000000000000000000006001600160a01b03169063a9059cbb906044016020604051808303815f875af1158015610635573d5f5f3e3d5ffd5b505050506040513d601f19601f82011682018060405250810190610659919061144a565b6106755760405162461bcd60e51b81526004016102d0906114a0565b50610a31565b60015f540361089f575f7f00000000000000000000000000000000000000000000000000000000000000006001600160a01b031663853828b66040518163ffffffff1660e01b81526004016020604051808303815f875af11580156106e2573d5f5f3e3d5ffd5b505050506040513d601f19601f820116820180604052508101906107069190611433565b90508181101561076e5760405162461bcd60e51b815260206004820152602d60248201527f53656e74696e656c5661756c743a20496e73756666696369656e742066756e6460448201526c1cc81a5b8814d85999541bdbdb609a1b60648201526084016102d0565b818111156105cb575f610781838361141a565b60405163095ea7b360e01b81526001600160a01b037f000000000000000000000000000000000000000000000000000000000000000081166004830152602482018390529192507f00000000000000000000000000000000000000000000000000000000000000009091169063095ea7b3906044016020604051808303815f875af1158015610812573d5f5f3e3d5ffd5b505050506040513d601f19601f82011682018060405250810190610836919061144a565b6108525760405162461bcd60e51b81526004016102d090611469565b60405163b6b55f2560e01b8152600481018290527f00000000000000000000000000000000000000000000000000000000000000006001600160a01b03169063b6b55f259060240161059c565b6040516370a0823160e01b815230600482015281907f00000000000000000000000000000000000000000000000000000000000000006001600160a01b0316906370a0823190602401602060405180830381865afa158015610903573d5f5f3e3d5ffd5b505050506040513d601f19601f820116820180604052508101906109279190611433565b10156109875760405162461bcd60e51b815260206004820152602960248201527f53656e74696e656c5661756c743a20496e73756666696369656e74207661756c604482015268742062616c616e636560b81b60648201526084016102d0565b60405163a9059cbb60e01b8152336004820152602481018290527f00000000000000000000000000000000000000000000000000000000000000006001600160a01b03169063a9059cbb906044016020604051808303815f875af11580156109f1573d5f5f3e3d5ffd5b505050506040513d601f19601f82011682018060405250810190610a15919061144a565b610a315760405162461bcd60e51b81526004016102d0906114a0565b60405181815233907f7084f5476618d8e60b11ef0d7d3f06914655adb8793e28ff7f018d4c76d505d5906020015b60405180910390a250565b5f7f00000000000000000000000000000000000000000000000000000000000000006001600160a01b03166398d5fdca6040518163ffffffff1660e01b8152600401602060405180830381865afa158015610ac7573d5f5f3e3d5ffd5b505050506040513d601f19601f82011682018060405250810190610aeb9190611433565b5f54909150670ddd2935029d8000821015610d52575f54610d4e575f7f00000000000000000000000000000000000000000000000000000000000000006001600160a01b031663853828b66040518163ffffffff1660e01b81526004016020604051808303815f875af1158015610b64573d5f5f3e3d5ffd5b505050506040513d601f19601f82011682018060405250810190610b889190611433565b90508015610cd25760405163095ea7b360e01b81526001600160a01b037f000000000000000000000000000000000000000000000000000000000000000081166004830152602482018390527f0000000000000000000000000000000000000000000000000000000000000000169063095ea7b3906044016020604051808303815f875af1158015610c1c573d5f5f3e3d5ffd5b505050506040513d601f19601f82011682018060405250810190610c40919061144a565b610c5c5760405162461bcd60e51b81526004016102d090611469565b60405163b6b55f2560e01b8152600481018290527f00000000000000000000000000000000000000000000000000000000000000006001600160a01b03169063b6b55f25906024015f604051808303815f87803b158015610cbb575f5ffd5b505af1158015610ccd573d5f5f3e3d5ffd5b505050505b60015f8190556040805184815260208101929092527fe8b28b0a696ce0b5b53cc170a0554f5c2bf9117e55c549656f9625f9bda6a02a910160405180910390a16040805160018152602081018390527fc257294ad49c215e1a248c91a86bc2612b4781d9677285cc9c14498f485ef122910160405180910390a1505b5050565b60015f5403610d4e575f7f00000000000000000000000000000000000000000000000000000000000000006001600160a01b031663853828b66040518163ffffffff1660e01b81526004016020604051808303815f875af1158015610db9573d5f5f3e3d5ffd5b505050506040513d601f19601f82011682018060405250810190610ddd9190611433565b90508015610f275760405163095ea7b360e01b81526001600160a01b037f000000000000000000000000000000000000000000000000000000000000000081166004830152602482018390527f0000000000000000000000000000000000000000000000000000000000000000169063095ea7b3906044016020604051808303815f875af1158015610e71573d5f5f3e3d5ffd5b505050506040513d601f19601f82011682018060405250810190610e95919061144a565b610eb15760405162461bcd60e51b81526004016102d090611469565b60405163b6b55f2560e01b8152600481018290527f00000000000000000000000000000000000000000000000000000000000000006001600160a01b03169063b6b55f25906024015f604051808303815f87803b158015610f10575f5ffd5b505af1158015610f22573d5f5f3e3d5ffd5b505050505b5f8080556040805184815260208101929092527fe8b28b0a696ce0b5b53cc170a0554f5c2bf9117e55c549656f9625f9bda6a02a910160405180910390a1604080515f8152602081018390527fc257294ad49c215e1a248c91a86bc2612b4781d9677285cc9c14498f485ef122910160405180910390a1505050565b5f8111610fc25760405162461bcd60e51b81526004016102d0906113ba565b6040516323b872dd60e01b8152336004820152306024820152604481018290527f00000000000000000000000000000000000000000000000000000000000000006001600160a01b0316906323b872dd906064016020604051808303815f875af1158015611032573d5f5f3e3d5ffd5b505050506040513d601f19601f82011682018060405250810190611056919061144a565b6110725760405162461bcd60e51b81526004016102d0906114a0565b335f90815260016020526040812080548392906110909084906114d7565b925050819055508060025f8282546110a891906114d7565b90915550505f546111f95760405163095ea7b360e01b81526001600160a01b037f000000000000000000000000000000000000000000000000000000000000000081166004830152602482018390527f0000000000000000000000000000000000000000000000000000000000000000169063095ea7b3906044016020604051808303815f875af115801561113f573d5f5f3e3d5ffd5b505050506040513d601f19601f82011682018060405250810190611163919061144a565b61117f5760405162461bcd60e51b81526004016102d090611469565b60405163b6b55f2560e01b8152600481018290527f00000000000000000000000000000000000000000000000000000000000000006001600160a01b03169063b6b55f25906024015f604051808303815f87803b1580156111de575f5ffd5b505af11580156111f0573d5f5f3e3d5ffd5b50505050611344565b60015f54036113445760405163095ea7b360e01b81526001600160a01b037f000000000000000000000000000000000000000000000000000000000000000081166004830152602482018390527f0000000000000000000000000000000000000000000000000000000000000000169063095ea7b3906044016020604051808303815f875af115801561128e573d5f5f3e3d5ffd5b505050506040513d601f19601f820116820180604052508101906112b2919061144a565b6112ce5760405162461bcd60e51b81526004016102d090611469565b60405163b6b55f2560e01b8152600481018290527f00000000000000000000000000000000000000000000000000000000000000006001600160a01b03169063b6b55f25906024015f604051808303815f87803b15801561132d575f5ffd5b505af115801561133f573d5f5f3e3d5ffd5b505050505b60405181815233907f2da466a7b24304f47e87fa2e1e5a81b9831ce54fec19055ce277ca2f39ba42c490602001610a5f565b5f60208284031215611386575f5ffd5b81356001600160a01b038116811461139c575f5ffd5b9392505050565b5f602082840312156113b3575f5ffd5b5035919050565b6020808252602c908201527f53656e74696e656c5661756c743a20416d6f756e74206d75737420626520677260408201526b06561746572207468616e20360a41b606082015260800190565b634e487b7160e01b5f52601160045260245ffd5b8181038181111561142d5761142d611406565b92915050565b5f60208284031215611443575f5ffd5b5051919050565b5f6020828403121561145a575f5ffd5b8151801515811461139c575f5ffd5b6020808252601e908201527f53656e74696e656c5661756c743a20417070726f76616c206661696c65640000604082015260600190565b6020808252601e908201527f53656e74696e656c5661756c743a205472616e73666572206661696c65640000604082015260600190565b8082018082111561142d5761142d61140656fea26469706673582212202a5d522a81a6f6c7332aabbd4a666996c863d012616cac27dff2f349c77c1eaf64736f6c634300081e0033",
    "linkReferences": {}
  },
  "methodIdentifiers": {
    "MODE_DEFENSIVE()": "98d20c11",
    "MODE_EMERGENCY()": "5c6cff88",
    "MODE_FARMING()": "25219137",
    "PRICE_THRESHOLD()": "5ed4c4dd",
    "currentMode()": "8125092f",
    "deposit(uint256)": "b6b55f25",
    "getBalance(address)": "f8b2cb4f",
    "getMode()": "4b4fd03b",
    "oracle()": "7dc0d1d0",
    "rebalance()": "7d7c2a1c",
    "safePool()": "84db6d29",
    "simulateRisk(uint256)": "513b55f8",
    "totalDeposits()": "7d882097",
    "usdc()": "3e413bee",
    "userDeposits(address)": "0ba36dcd",
    "withdraw(uint256)": "2e1a7d4d",
    "yieldPool()": "8f188dd4"
  },
  "id": 25
}