{"abi":[{"type":"constructor","inputs":[{"name":"_usdc","type":"address","internalType":"address"}],"stateMutability":"nonpayable"},{"type":"function","name":"YIELD_MULTIPLIER","inputs":[],"outputs":[{"name":"","type":"uint256","internalType":"uint256"}],"stateMutability":"view"},{"type":"function","name":"balances","inputs":[{"name":"","type":"address","internalType":"address"}],"outputs":[{"name":"","type":"uint256","internalType":"uint256"}],"stateMutability":"view"},{"type":"function","name":"deposit","inputs":[{"name":"amount","type":"uint256","internalType":"uint256"}],"outputs":[],"stateMutability":"nonpayable"},{"type":"function","name":"getTotalBalance","inputs":[],"outputs":[{"name":"","type":"uint256","internalType":"uint256"}],"stateMutability":"view"},{"type":"function","name":"totalDeposits","inputs":[],"outputs":[{"name":"","type":"uint256","internalType":"uint256"}],"stateMutability":"view"},{"type":"function","name":"usdc","inputs":[],"outputs":[{"name":"","type":"address","internalType":"contract IERC20"}],"stateMutability":"view"},{"type":"function","name":"withdrawAll","inputs":[],"outputs":[{"name":"","type":"uint256","internalType":"uint256"}],"stateMutability":"nonpayable"},{"type":"event","name":"Deposited","inputs":[{"name":"user","type":"address","indexed":true,"internalType":"address"},{"name":"amount","type":"uint256","indexed":false,"internalType":"uint256"}],"anonymous":false},{"type":"event","name":"Withdrawn","inputs":[{"name":"user","type":"address","indexed":true,"internalType":"address"},{"name":"amount","type":"uint256","indexed":false,"internalType":"uint256"}],"anonymous":false}],"bytecode":{"object":"0x60a060405234801561000f575f5ffd5b5060405161065b38038061065b83398101604081905261002e91610099565b6001600160a01b0381166100885760405162461bcd60e51b815260206004820152601f60248201527f5969656c64506f6f6c3a20496e76616c69642055534443206164647265737300604482015260640160405180910390fd5b6001600160a01b03166080526100c6565b5f602082840312156100a9575f5ffd5b81516001600160a01b03811681146100bf575f5ffd5b9392505050565b6080516105706100eb5f395f818160b9015281816101c8015261034301526105705ff3fe608060405234801561000f575f5ffd5b506004361061007a575f3560e01c80637d882097116100585780637d882097146100f3578063853828b6146100fc578063b6b55f2514610104578063beb85d0714610119575f5ffd5b806312b583491461007e57806327e235e3146100955780633e413bee146100b4575b5f5ffd5b6001545b6040519081526020015b60405180910390f35b6100826100a3366004610474565b5f6020819052908152604090205481565b6100db7f000000000000000000000000000000000000000000000000000000000000000081565b6040516001600160a01b03909116815260200161008c565b61008260015481565b610082610128565b6101176101123660046104a1565b6102c1565b005b610082670e92596fd629000081565b6001545f908061017f5760405162461bcd60e51b815260206004820152601f60248201527f5969656c64506f6f6c3a204e6f2066756e647320746f2077697468647261770060448201526064015b60405180910390fd5b5f670de0b6b3a764000061019b670e92596fd6290000846104cc565b6101a591906104e9565b5f60015560405163a9059cbb60e01b8152336004820152602481018490529091507f00000000000000000000000000000000000000000000000000000000000000006001600160a01b03169063a9059cbb906044016020604051808303815f875af1158015610216573d5f5f3e3d5ffd5b505050506040513d601f19601f8201168201806040525081019061023a9190610508565b6102865760405162461bcd60e51b815260206004820152601a60248201527f5969656c64506f6f6c3a205472616e73666572206661696c65640000000000006044820152606401610176565b60405182815233907f7084f5476618d8e60b11ef0d7d3f06914655adb8793e28ff7f018d4c76d505d59060200160405180910390a250919050565b5f81116103215760405162461bcd60e51b815260206004820152602860248201527f5969656c64506f6f6c3a20416d6f756e74206d75737420626520677265617465604482015267072207468616e20360c41b6064820152608401610176565b6040516323b872dd60e01b8152336004820152306024820152604481018290527f00000000000000000000000000000000000000000000000000000000000000006001600160a01b0316906323b872dd906064016020604051808303815f875af1158015610391573d5f5f3e3d5ffd5b505050506040513d601f19601f820116820180604052508101906103b59190610508565b6104015760405162461bcd60e51b815260206004820152601a60248201527f5969656c64506f6f6c3a205472616e73666572206661696c65640000000000006044820152606401610176565b335f908152602081905260408120805483929061041f908490610527565b925050819055508060015f8282546104379190610527565b909155505060405181815233907f2da466a7b24304f47e87fa2e1e5a81b9831ce54fec19055ce277ca2f39ba42c49060200160405180910390a250565b5f60208284031215610484575f5ffd5b81356001600160a01b038116811461049a575f5ffd5b9392505050565b5f602082840312156104b1575f5ffd5b5035919050565b634e487b7160e01b5f52601160045260245ffd5b80820281158282048414176104e3576104e36104b8565b92915050565b5f8261050357634e487b7160e01b5f52601260045260245ffd5b500490565b5f60208284031215610518575f5ffd5b8151801515811461049a575f5ffd5b808201808211156104e3576104e36104b856fea2646970667358221220cb22805057c557cc0192daab547255ed8a0ec1231c2e6c151f4a5eddacd4388164736f6c634300081e0033","linkReferences":{}},"methodIdentifiers":{"YIELD_MULTIPLIER()":"beb85d07","balances(address)":"27e235e3","deposit(uint256)":"b6b55f25","getTotalBalance()":"12b58349","totalDeposits()":"7d882097","usdc()":"3e413bee","withdrawAll()":"853828b6"},"id":26}